
ProjektniZadatak.elf:     file format elf32-littlearm

Sections:
Idx Name          Size      VMA       LMA       File off  Algn
  0 .isr_vector   0000010c  08000000  08000000  00010000  2**0
                  CONTENTS, ALLOC, LOAD, READONLY, DATA
  1 .text         000010a0  0800010c  0800010c  0001010c  2**2
                  CONTENTS, ALLOC, LOAD, READONLY, CODE
  2 .rodata       00000020  080011ac  080011ac  000111ac  2**2
                  CONTENTS, ALLOC, LOAD, READONLY, DATA
  3 .ARM.extab    00000000  080011cc  080011cc  0002000c  2**0
                  CONTENTS
  4 .ARM          00000000  080011cc  080011cc  0002000c  2**0
                  CONTENTS
  5 .preinit_array 00000000  080011cc  080011cc  0002000c  2**0
                  CONTENTS, ALLOC, LOAD, DATA
  6 .init_array   00000004  080011cc  080011cc  000111cc  2**2
                  CONTENTS, ALLOC, LOAD, DATA
  7 .fini_array   00000004  080011d0  080011d0  000111d0  2**2
                  CONTENTS, ALLOC, LOAD, DATA
  8 .data         0000000c  20000000  080011d4  00020000  2**2
                  CONTENTS, ALLOC, LOAD, DATA
  9 .bss          00000020  2000000c  080011e0  0002000c  2**2
                  ALLOC
 10 ._user_heap_stack 00000604  2000002c  080011e0  0002002c  2**0
                  ALLOC
 11 .ARM.attributes 00000029  00000000  00000000  0002000c  2**0
                  CONTENTS, READONLY
 12 .debug_info   00002a68  00000000  00000000  00020035  2**0
                  CONTENTS, READONLY, DEBUGGING, OCTETS
 13 .debug_abbrev 00000dae  00000000  00000000  00022a9d  2**0
                  CONTENTS, READONLY, DEBUGGING, OCTETS
 14 .debug_aranges 000003d0  00000000  00000000  00023850  2**3
                  CONTENTS, READONLY, DEBUGGING, OCTETS
 15 .debug_ranges 00000348  00000000  00000000  00023c20  2**3
                  CONTENTS, READONLY, DEBUGGING, OCTETS
 16 .debug_macro  000154d7  00000000  00000000  00023f68  2**0
                  CONTENTS, READONLY, DEBUGGING, OCTETS
 17 .debug_line   000044de  00000000  00000000  0003943f  2**0
                  CONTENTS, READONLY, DEBUGGING, OCTETS
 18 .debug_str    000795b3  00000000  00000000  0003d91d  2**0
                  CONTENTS, READONLY, DEBUGGING, OCTETS
 19 .comment      00000050  00000000  00000000  000b6ed0  2**0
                  CONTENTS, READONLY
 20 .debug_frame  00000d30  00000000  00000000  000b6f20  2**2
                  CONTENTS, READONLY, DEBUGGING, OCTETS

Disassembly of section .text:

0800010c <__do_global_dtors_aux>:
 800010c:	b510      	push	{r4, lr}
 800010e:	4c05      	ldr	r4, [pc, #20]	; (8000124 <__do_global_dtors_aux+0x18>)
 8000110:	7823      	ldrb	r3, [r4, #0]
 8000112:	b933      	cbnz	r3, 8000122 <__do_global_dtors_aux+0x16>
 8000114:	4b04      	ldr	r3, [pc, #16]	; (8000128 <__do_global_dtors_aux+0x1c>)
 8000116:	b113      	cbz	r3, 800011e <__do_global_dtors_aux+0x12>
 8000118:	4804      	ldr	r0, [pc, #16]	; (800012c <__do_global_dtors_aux+0x20>)
 800011a:	f3af 8000 	nop.w
 800011e:	2301      	movs	r3, #1
 8000120:	7023      	strb	r3, [r4, #0]
 8000122:	bd10      	pop	{r4, pc}
 8000124:	2000000c 	.word	0x2000000c
 8000128:	00000000 	.word	0x00000000
 800012c:	08001194 	.word	0x08001194

08000130 <frame_dummy>:
 8000130:	b508      	push	{r3, lr}
 8000132:	4b03      	ldr	r3, [pc, #12]	; (8000140 <frame_dummy+0x10>)
 8000134:	b11b      	cbz	r3, 800013e <frame_dummy+0xe>
 8000136:	4903      	ldr	r1, [pc, #12]	; (8000144 <frame_dummy+0x14>)
 8000138:	4803      	ldr	r0, [pc, #12]	; (8000148 <frame_dummy+0x18>)
 800013a:	f3af 8000 	nop.w
 800013e:	bd08      	pop	{r3, pc}
 8000140:	00000000 	.word	0x00000000
 8000144:	20000010 	.word	0x20000010
 8000148:	08001194 	.word	0x08001194

0800014c <main>:
/**
  * @brief  The application entry point.
  * @retval int
  */
int main(void)
{
 800014c:	b580      	push	{r7, lr}
 800014e:	af00      	add	r7, sp, #0
  /* USER CODE END 1 */

  /* MCU Configuration--------------------------------------------------------*/

  /* Reset of all peripherals, Initializes the Flash interface and the Systick. */
  HAL_Init();
 8000150:	f000 f90e 	bl	8000370 <HAL_Init>
  /* USER CODE BEGIN Init */

  /* USER CODE END Init */

  /* Configure the system clock */
  SystemClock_Config();
 8000154:	f000 f822 	bl	800019c <SystemClock_Config>
  /* USER CODE BEGIN SysInit */

  /* USER CODE END SysInit */

  /* Initialize all configured peripherals */
  MX_GPIO_Init();
 8000158:	f000 f85c 	bl	8000214 <MX_GPIO_Init>
  /* USER CODE BEGIN WHILE */
  while (1)
  {
    /* USER CODE END WHILE */

	  HAL_GPIO_WritePin(GPIOA,dioda2,GPIO_PIN_RESET);
 800015c:	2200      	movs	r2, #0
 800015e:	2104      	movs	r1, #4
 8000160:	480d      	ldr	r0, [pc, #52]	; (8000198 <main+0x4c>)
 8000162:	f000 fbeb 	bl	800093c <HAL_GPIO_WritePin>
	  HAL_GPIO_WritePin(GPIOA,dioda3,GPIO_PIN_SET);
 8000166:	2201      	movs	r2, #1
 8000168:	2108      	movs	r1, #8
 800016a:	480b      	ldr	r0, [pc, #44]	; (8000198 <main+0x4c>)
 800016c:	f000 fbe6 	bl	800093c <HAL_GPIO_WritePin>
	  HAL_Delay(500);
 8000170:	f44f 70fa 	mov.w	r0, #500	; 0x1f4
 8000174:	f000 f95e 	bl	8000434 <HAL_Delay>
	  HAL_GPIO_WritePin(GPIOA,dioda2,GPIO_PIN_SET);
 8000178:	2201      	movs	r2, #1
 800017a:	2104      	movs	r1, #4
 800017c:	4806      	ldr	r0, [pc, #24]	; (8000198 <main+0x4c>)
 800017e:	f000 fbdd 	bl	800093c <HAL_GPIO_WritePin>
	  HAL_GPIO_WritePin(GPIOA,dioda3,GPIO_PIN_RESET);
 8000182:	2200      	movs	r2, #0
 8000184:	2108      	movs	r1, #8
 8000186:	4804      	ldr	r0, [pc, #16]	; (8000198 <main+0x4c>)
 8000188:	f000 fbd8 	bl	800093c <HAL_GPIO_WritePin>
	  HAL_Delay(500);
 800018c:	f44f 70fa 	mov.w	r0, #500	; 0x1f4
 8000190:	f000 f950 	bl	8000434 <HAL_Delay>
	  HAL_GPIO_WritePin(GPIOA,dioda2,GPIO_PIN_RESET);
 8000194:	e7e2      	b.n	800015c <main+0x10>
 8000196:	bf00      	nop
 8000198:	40010800 	.word	0x40010800

0800019c <SystemClock_Config>:
/**
  * @brief System Clock Configuration
  * @retval None
  */
void SystemClock_Config(void)
{
 800019c:	b580      	push	{r7, lr}
 800019e:	b090      	sub	sp, #64	; 0x40
 80001a0:	af00      	add	r7, sp, #0
  RCC_OscInitTypeDef RCC_OscInitStruct = {0};
 80001a2:	f107 0318 	add.w	r3, r7, #24
 80001a6:	2228      	movs	r2, #40	; 0x28
 80001a8:	2100      	movs	r1, #0
 80001aa:	4618      	mov	r0, r3
 80001ac:	f000 ffea 	bl	8001184 <memset>
  RCC_ClkInitTypeDef RCC_ClkInitStruct = {0};
 80001b0:	1d3b      	adds	r3, r7, #4
 80001b2:	2200      	movs	r2, #0
 80001b4:	601a      	str	r2, [r3, #0]
 80001b6:	605a      	str	r2, [r3, #4]
 80001b8:	609a      	str	r2, [r3, #8]
 80001ba:	60da      	str	r2, [r3, #12]
 80001bc:	611a      	str	r2, [r3, #16]

  /** Initializes the RCC Oscillators according to the specified parameters
  * in the RCC_OscInitTypeDef structure.
  */
  RCC_OscInitStruct.OscillatorType = RCC_OSCILLATORTYPE_HSI;
 80001be:	2302      	movs	r3, #2
 80001c0:	61bb      	str	r3, [r7, #24]
  RCC_OscInitStruct.HSIState = RCC_HSI_ON;
 80001c2:	2301      	movs	r3, #1
 80001c4:	62bb      	str	r3, [r7, #40]	; 0x28
  RCC_OscInitStruct.HSICalibrationValue = RCC_HSICALIBRATION_DEFAULT;
 80001c6:	2310      	movs	r3, #16
 80001c8:	62fb      	str	r3, [r7, #44]	; 0x2c
  RCC_OscInitStruct.PLL.PLLState = RCC_PLL_NONE;
 80001ca:	2300      	movs	r3, #0
 80001cc:	637b      	str	r3, [r7, #52]	; 0x34
  if (HAL_RCC_OscConfig(&RCC_OscInitStruct) != HAL_OK)
 80001ce:	f107 0318 	add.w	r3, r7, #24
 80001d2:	4618      	mov	r0, r3
 80001d4:	f000 fbca 	bl	800096c <HAL_RCC_OscConfig>
 80001d8:	4603      	mov	r3, r0
 80001da:	2b00      	cmp	r3, #0
 80001dc:	d001      	beq.n	80001e2 <SystemClock_Config+0x46>
  {
    Error_Handler();
 80001de:	f000 f84b 	bl	8000278 <Error_Handler>
  }

  /** Initializes the CPU, AHB and APB buses clocks
  */
  RCC_ClkInitStruct.ClockType = RCC_CLOCKTYPE_HCLK|RCC_CLOCKTYPE_SYSCLK
 80001e2:	230f      	movs	r3, #15
 80001e4:	607b      	str	r3, [r7, #4]
                              |RCC_CLOCKTYPE_PCLK1|RCC_CLOCKTYPE_PCLK2;
  RCC_ClkInitStruct.SYSCLKSource = RCC_SYSCLKSOURCE_HSI;
 80001e6:	2300      	movs	r3, #0
 80001e8:	60bb      	str	r3, [r7, #8]
  RCC_ClkInitStruct.AHBCLKDivider = RCC_SYSCLK_DIV1;
 80001ea:	2300      	movs	r3, #0
 80001ec:	60fb      	str	r3, [r7, #12]
  RCC_ClkInitStruct.APB1CLKDivider = RCC_HCLK_DIV1;
 80001ee:	2300      	movs	r3, #0
 80001f0:	613b      	str	r3, [r7, #16]
  RCC_ClkInitStruct.APB2CLKDivider = RCC_HCLK_DIV1;
 80001f2:	2300      	movs	r3, #0
 80001f4:	617b      	str	r3, [r7, #20]

  if (HAL_RCC_ClockConfig(&RCC_ClkInitStruct, FLASH_LATENCY_0) != HAL_OK)
 80001f6:	1d3b      	adds	r3, r7, #4
 80001f8:	2100      	movs	r1, #0
 80001fa:	4618      	mov	r0, r3
 80001fc:	f000 fe38 	bl	8000e70 <HAL_RCC_ClockConfig>
 8000200:	4603      	mov	r3, r0
 8000202:	2b00      	cmp	r3, #0
 8000204:	d001      	beq.n	800020a <SystemClock_Config+0x6e>
  {
    Error_Handler();
 8000206:	f000 f837 	bl	8000278 <Error_Handler>
  }
}
 800020a:	bf00      	nop
 800020c:	3740      	adds	r7, #64	; 0x40
 800020e:	46bd      	mov	sp, r7
 8000210:	bd80      	pop	{r7, pc}
	...

08000214 <MX_GPIO_Init>:
  * @brief GPIO Initialization Function
  * @param None
  * @retval None
  */
static void MX_GPIO_Init(void)
{
 8000214:	b580      	push	{r7, lr}
 8000216:	b086      	sub	sp, #24
 8000218:	af00      	add	r7, sp, #0
  GPIO_InitTypeDef GPIO_InitStruct = {0};
 800021a:	f107 0308 	add.w	r3, r7, #8
 800021e:	2200      	movs	r2, #0
 8000220:	601a      	str	r2, [r3, #0]
 8000222:	605a      	str	r2, [r3, #4]
 8000224:	609a      	str	r2, [r3, #8]
 8000226:	60da      	str	r2, [r3, #12]

  /* GPIO Ports Clock Enable */
  __HAL_RCC_GPIOA_CLK_ENABLE();
 8000228:	4b11      	ldr	r3, [pc, #68]	; (8000270 <MX_GPIO_Init+0x5c>)
 800022a:	699b      	ldr	r3, [r3, #24]
 800022c:	4a10      	ldr	r2, [pc, #64]	; (8000270 <MX_GPIO_Init+0x5c>)
 800022e:	f043 0304 	orr.w	r3, r3, #4
 8000232:	6193      	str	r3, [r2, #24]
 8000234:	4b0e      	ldr	r3, [pc, #56]	; (8000270 <MX_GPIO_Init+0x5c>)
 8000236:	699b      	ldr	r3, [r3, #24]
 8000238:	f003 0304 	and.w	r3, r3, #4
 800023c:	607b      	str	r3, [r7, #4]
 800023e:	687b      	ldr	r3, [r7, #4]

  /*Configure GPIO pin Output Level */
  HAL_GPIO_WritePin(GPIOA, GPIO_PIN_1|GPIO_PIN_2|GPIO_PIN_3, GPIO_PIN_SET);
 8000240:	2201      	movs	r2, #1
 8000242:	210e      	movs	r1, #14
 8000244:	480b      	ldr	r0, [pc, #44]	; (8000274 <MX_GPIO_Init+0x60>)
 8000246:	f000 fb79 	bl	800093c <HAL_GPIO_WritePin>

  /*Configure GPIO pins : PA1 PA2 PA3 */
  GPIO_InitStruct.Pin = GPIO_PIN_1|GPIO_PIN_2|GPIO_PIN_3;
 800024a:	230e      	movs	r3, #14
 800024c:	60bb      	str	r3, [r7, #8]
  GPIO_InitStruct.Mode = GPIO_MODE_OUTPUT_PP;
 800024e:	2301      	movs	r3, #1
 8000250:	60fb      	str	r3, [r7, #12]
  GPIO_InitStruct.Pull = GPIO_NOPULL;
 8000252:	2300      	movs	r3, #0
 8000254:	613b      	str	r3, [r7, #16]
  GPIO_InitStruct.Speed = GPIO_SPEED_FREQ_LOW;
 8000256:	2302      	movs	r3, #2
 8000258:	617b      	str	r3, [r7, #20]
  HAL_GPIO_Init(GPIOA, &GPIO_InitStruct);
 800025a:	f107 0308 	add.w	r3, r7, #8
 800025e:	4619      	mov	r1, r3
 8000260:	4804      	ldr	r0, [pc, #16]	; (8000274 <MX_GPIO_Init+0x60>)
 8000262:	f000 f9ef 	bl	8000644 <HAL_GPIO_Init>

}
 8000266:	bf00      	nop
 8000268:	3718      	adds	r7, #24
 800026a:	46bd      	mov	sp, r7
 800026c:	bd80      	pop	{r7, pc}
 800026e:	bf00      	nop
 8000270:	40021000 	.word	0x40021000
 8000274:	40010800 	.word	0x40010800

08000278 <Error_Handler>:
/**
  * @brief  This function is executed in case of error occurrence.
  * @retval None
  */
void Error_Handler(void)
{
 8000278:	b480      	push	{r7}
 800027a:	af00      	add	r7, sp, #0
  \details Disables IRQ interrupts by setting the I-bit in the CPSR.
           Can only be executed in Privileged modes.
 */
__STATIC_FORCEINLINE void __disable_irq(void)
{
  __ASM volatile ("cpsid i" : : : "memory");
 800027c:	b672      	cpsid	i
}
 800027e:	bf00      	nop
  /* USER CODE BEGIN Error_Handler_Debug */
  /* User can add his own implementation to report the HAL error return state */
  __disable_irq();
  while (1)
 8000280:	e7fe      	b.n	8000280 <Error_Handler+0x8>
	...

08000284 <HAL_MspInit>:
/* USER CODE END 0 */
/**
  * Initializes the Global MSP.
  */
void HAL_MspInit(void)
{
 8000284:	b480      	push	{r7}
 8000286:	b083      	sub	sp, #12
 8000288:	af00      	add	r7, sp, #0
  /* USER CODE BEGIN MspInit 0 */

  /* USER CODE END MspInit 0 */

  __HAL_RCC_AFIO_CLK_ENABLE();
 800028a:	4b0e      	ldr	r3, [pc, #56]	; (80002c4 <HAL_MspInit+0x40>)
 800028c:	699b      	ldr	r3, [r3, #24]
 800028e:	4a0d      	ldr	r2, [pc, #52]	; (80002c4 <HAL_MspInit+0x40>)
 8000290:	f043 0301 	orr.w	r3, r3, #1
 8000294:	6193      	str	r3, [r2, #24]
 8000296:	4b0b      	ldr	r3, [pc, #44]	; (80002c4 <HAL_MspInit+0x40>)
 8000298:	699b      	ldr	r3, [r3, #24]
 800029a:	f003 0301 	and.w	r3, r3, #1
 800029e:	607b      	str	r3, [r7, #4]
 80002a0:	687b      	ldr	r3, [r7, #4]
  __HAL_RCC_PWR_CLK_ENABLE();
 80002a2:	4b08      	ldr	r3, [pc, #32]	; (80002c4 <HAL_MspInit+0x40>)
 80002a4:	69db      	ldr	r3, [r3, #28]
 80002a6:	4a07      	ldr	r2, [pc, #28]	; (80002c4 <HAL_MspInit+0x40>)
 80002a8:	f043 5380 	orr.w	r3, r3, #268435456	; 0x10000000
 80002ac:	61d3      	str	r3, [r2, #28]
 80002ae:	4b05      	ldr	r3, [pc, #20]	; (80002c4 <HAL_MspInit+0x40>)
 80002b0:	69db      	ldr	r3, [r3, #28]
 80002b2:	f003 5380 	and.w	r3, r3, #268435456	; 0x10000000
 80002b6:	603b      	str	r3, [r7, #0]
 80002b8:	683b      	ldr	r3, [r7, #0]
  /* System interrupt init*/

  /* USER CODE BEGIN MspInit 1 */

  /* USER CODE END MspInit 1 */
}
 80002ba:	bf00      	nop
 80002bc:	370c      	adds	r7, #12
 80002be:	46bd      	mov	sp, r7
 80002c0:	bc80      	pop	{r7}
 80002c2:	4770      	bx	lr
 80002c4:	40021000 	.word	0x40021000

080002c8 <NMI_Handler>:
/******************************************************************************/
/**
  * @brief This function handles Non maskable interrupt.
  */
void NMI_Handler(void)
{
 80002c8:	b480      	push	{r7}
 80002ca:	af00      	add	r7, sp, #0
  /* USER CODE BEGIN NonMaskableInt_IRQn 0 */

  /* USER CODE END NonMaskableInt_IRQn 0 */
  /* USER CODE BEGIN NonMaskableInt_IRQn 1 */
  while (1)
 80002cc:	e7fe      	b.n	80002cc <NMI_Handler+0x4>

080002ce <HardFault_Handler>:

/**
  * @brief This function handles Hard fault interrupt.
  */
void HardFault_Handler(void)
{
 80002ce:	b480      	push	{r7}
 80002d0:	af00      	add	r7, sp, #0
  /* USER CODE BEGIN HardFault_IRQn 0 */

  /* USER CODE END HardFault_IRQn 0 */
  while (1)
 80002d2:	e7fe      	b.n	80002d2 <HardFault_Handler+0x4>

080002d4 <MemManage_Handler>:

/**
  * @brief This function handles Memory management fault.
  */
void MemManage_Handler(void)
{
 80002d4:	b480      	push	{r7}
 80002d6:	af00      	add	r7, sp, #0
  /* USER CODE BEGIN MemoryManagement_IRQn 0 */

  /* USER CODE END MemoryManagement_IRQn 0 */
  while (1)
 80002d8:	e7fe      	b.n	80002d8 <MemManage_Handler+0x4>

080002da <BusFault_Handler>:

/**
  * @brief This function handles Prefetch fault, memory access fault.
  */
void BusFault_Handler(void)
{
 80002da:	b480      	push	{r7}
 80002dc:	af00      	add	r7, sp, #0
  /* USER CODE BEGIN BusFault_IRQn 0 */

  /* USER CODE END BusFault_IRQn 0 */
  while (1)
 80002de:	e7fe      	b.n	80002de <BusFault_Handler+0x4>

080002e0 <UsageFault_Handler>:

/**
  * @brief This function handles Undefined instruction or illegal state.
  */
void UsageFault_Handler(void)
{
 80002e0:	b480      	push	{r7}
 80002e2:	af00      	add	r7, sp, #0
  /* USER CODE BEGIN UsageFault_IRQn 0 */

  /* USER CODE END UsageFault_IRQn 0 */
  while (1)
 80002e4:	e7fe      	b.n	80002e4 <UsageFault_Handler+0x4>

080002e6 <SVC_Handler>:

/**
  * @brief This function handles System service call via SWI instruction.
  */
void SVC_Handler(void)
{
 80002e6:	b480      	push	{r7}
 80002e8:	af00      	add	r7, sp, #0

  /* USER CODE END SVCall_IRQn 0 */
  /* USER CODE BEGIN SVCall_IRQn 1 */

  /* USER CODE END SVCall_IRQn 1 */
}
 80002ea:	bf00      	nop
 80002ec:	46bd      	mov	sp, r7
 80002ee:	bc80      	pop	{r7}
 80002f0:	4770      	bx	lr

080002f2 <DebugMon_Handler>:

/**
  * @brief This function handles Debug monitor.
  */
void DebugMon_Handler(void)
{
 80002f2:	b480      	push	{r7}
 80002f4:	af00      	add	r7, sp, #0

  /* USER CODE END DebugMonitor_IRQn 0 */
  /* USER CODE BEGIN DebugMonitor_IRQn 1 */

  /* USER CODE END DebugMonitor_IRQn 1 */
}
 80002f6:	bf00      	nop
 80002f8:	46bd      	mov	sp, r7
 80002fa:	bc80      	pop	{r7}
 80002fc:	4770      	bx	lr

080002fe <PendSV_Handler>:

/**
  * @brief This function handles Pendable request for system service.
  */
void PendSV_Handler(void)
{
 80002fe:	b480      	push	{r7}
 8000300:	af00      	add	r7, sp, #0

  /* USER CODE END PendSV_IRQn 0 */
  /* USER CODE BEGIN PendSV_IRQn 1 */

  /* USER CODE END PendSV_IRQn 1 */
}
 8000302:	bf00      	nop
 8000304:	46bd      	mov	sp, r7
 8000306:	bc80      	pop	{r7}
 8000308:	4770      	bx	lr

0800030a <SysTick_Handler>:

/**
  * @brief This function handles System tick timer.
  */
void SysTick_Handler(void)
{
 800030a:	b580      	push	{r7, lr}
 800030c:	af00      	add	r7, sp, #0
  /* USER CODE BEGIN SysTick_IRQn 0 */

  /* USER CODE END SysTick_IRQn 0 */
  HAL_IncTick();
 800030e:	f000 f875 	bl	80003fc <HAL_IncTick>
  /* USER CODE BEGIN SysTick_IRQn 1 */

  /* USER CODE END SysTick_IRQn 1 */
}
 8000312:	bf00      	nop
 8000314:	bd80      	pop	{r7, pc}

08000316 <SystemInit>:
  * @note   This function should be used only after reset.
  * @param  None
  * @retval None
  */
void SystemInit (void)
{
 8000316:	b480      	push	{r7}
 8000318:	af00      	add	r7, sp, #0

  /* Configure the Vector Table location -------------------------------------*/
#if defined(USER_VECT_TAB_ADDRESS)
  SCB->VTOR = VECT_TAB_BASE_ADDRESS | VECT_TAB_OFFSET; /* Vector Table Relocation in Internal SRAM. */
#endif /* USER_VECT_TAB_ADDRESS */
}
 800031a:	bf00      	nop
 800031c:	46bd      	mov	sp, r7
 800031e:	bc80      	pop	{r7}
 8000320:	4770      	bx	lr
	...

08000324 <Reset_Handler>:
  .weak Reset_Handler
  .type Reset_Handler, %function
Reset_Handler:

/* Copy the data segment initializers from flash to SRAM */
  ldr r0, =_sdata
 8000324:	480c      	ldr	r0, [pc, #48]	; (8000358 <LoopFillZerobss+0x12>)
  ldr r1, =_edata
 8000326:	490d      	ldr	r1, [pc, #52]	; (800035c <LoopFillZerobss+0x16>)
  ldr r2, =_sidata
 8000328:	4a0d      	ldr	r2, [pc, #52]	; (8000360 <LoopFillZerobss+0x1a>)
  movs r3, #0
 800032a:	2300      	movs	r3, #0
  b LoopCopyDataInit
 800032c:	e002      	b.n	8000334 <LoopCopyDataInit>

0800032e <CopyDataInit>:

CopyDataInit:
  ldr r4, [r2, r3]
 800032e:	58d4      	ldr	r4, [r2, r3]
  str r4, [r0, r3]
 8000330:	50c4      	str	r4, [r0, r3]
  adds r3, r3, #4
 8000332:	3304      	adds	r3, #4

08000334 <LoopCopyDataInit>:

LoopCopyDataInit:
  adds r4, r0, r3
 8000334:	18c4      	adds	r4, r0, r3
  cmp r4, r1
 8000336:	428c      	cmp	r4, r1
  bcc CopyDataInit
 8000338:	d3f9      	bcc.n	800032e <CopyDataInit>
  
/* Zero fill the bss segment. */
  ldr r2, =_sbss
 800033a:	4a0a      	ldr	r2, [pc, #40]	; (8000364 <LoopFillZerobss+0x1e>)
  ldr r4, =_ebss
 800033c:	4c0a      	ldr	r4, [pc, #40]	; (8000368 <LoopFillZerobss+0x22>)
  movs r3, #0
 800033e:	2300      	movs	r3, #0
  b LoopFillZerobss
 8000340:	e001      	b.n	8000346 <LoopFillZerobss>

08000342 <FillZerobss>:

FillZerobss:
  str  r3, [r2]
 8000342:	6013      	str	r3, [r2, #0]
  adds r2, r2, #4
 8000344:	3204      	adds	r2, #4

08000346 <LoopFillZerobss>:

LoopFillZerobss:
  cmp r2, r4
 8000346:	42a2      	cmp	r2, r4
  bcc FillZerobss
 8000348:	d3fb      	bcc.n	8000342 <FillZerobss>

/* Call the clock system intitialization function.*/
    bl  SystemInit
 800034a:	f7ff ffe4 	bl	8000316 <SystemInit>
/* Call static constructors */
    bl __libc_init_array
 800034e:	f000 fef5 	bl	800113c <__libc_init_array>
/* Call the application's entry point.*/
  bl main
 8000352:	f7ff fefb 	bl	800014c <main>
  bx lr
 8000356:	4770      	bx	lr
  ldr r0, =_sdata
 8000358:	20000000 	.word	0x20000000
  ldr r1, =_edata
 800035c:	2000000c 	.word	0x2000000c
  ldr r2, =_sidata
 8000360:	080011d4 	.word	0x080011d4
  ldr r2, =_sbss
 8000364:	2000000c 	.word	0x2000000c
  ldr r4, =_ebss
 8000368:	2000002c 	.word	0x2000002c

0800036c <ADC1_2_IRQHandler>:
 * @retval : None
*/
    .section .text.Default_Handler,"ax",%progbits
Default_Handler:
Infinite_Loop:
  b Infinite_Loop
 800036c:	e7fe      	b.n	800036c <ADC1_2_IRQHandler>
	...

08000370 <HAL_Init>:
  *         need to ensure that the SysTick time base is always set to 1 millisecond
  *         to have correct HAL operation.
  * @retval HAL status
  */
HAL_StatusTypeDef HAL_Init(void)
{
 8000370:	b580      	push	{r7, lr}
 8000372:	af00      	add	r7, sp, #0
    defined(STM32F102x6) || defined(STM32F102xB) || \
    defined(STM32F103x6) || defined(STM32F103xB) || defined(STM32F103xE) || defined(STM32F103xG) || \
    defined(STM32F105xC) || defined(STM32F107xC)

  /* Prefetch buffer is not available on value line devices */
  __HAL_FLASH_PREFETCH_BUFFER_ENABLE();
 8000374:	4b08      	ldr	r3, [pc, #32]	; (8000398 <HAL_Init+0x28>)
 8000376:	681b      	ldr	r3, [r3, #0]
 8000378:	4a07      	ldr	r2, [pc, #28]	; (8000398 <HAL_Init+0x28>)
 800037a:	f043 0310 	orr.w	r3, r3, #16
 800037e:	6013      	str	r3, [r2, #0]
#endif
#endif /* PREFETCH_ENABLE */

  /* Set Interrupt Group Priority */
  HAL_NVIC_SetPriorityGrouping(NVIC_PRIORITYGROUP_4);
 8000380:	2003      	movs	r0, #3
 8000382:	f000 f92b 	bl	80005dc <HAL_NVIC_SetPriorityGrouping>

  /* Use systick as time base source and configure 1ms tick (default clock after Reset is HSI) */
  HAL_InitTick(TICK_INT_PRIORITY);
 8000386:	200f      	movs	r0, #15
 8000388:	f000 f808 	bl	800039c <HAL_InitTick>

  /* Init the low level hardware */
  HAL_MspInit();
 800038c:	f7ff ff7a 	bl	8000284 <HAL_MspInit>

  /* Return function status */
  return HAL_OK;
 8000390:	2300      	movs	r3, #0
}
 8000392:	4618      	mov	r0, r3
 8000394:	bd80      	pop	{r7, pc}
 8000396:	bf00      	nop
 8000398:	40022000 	.word	0x40022000

0800039c <HAL_InitTick>:
  *       implementation  in user file.
  * @param TickPriority Tick interrupt priority.
  * @retval HAL status
  */
__weak HAL_StatusTypeDef HAL_InitTick(uint32_t TickPriority)
{
 800039c:	b580      	push	{r7, lr}
 800039e:	b082      	sub	sp, #8
 80003a0:	af00      	add	r7, sp, #0
 80003a2:	6078      	str	r0, [r7, #4]
  /* Configure the SysTick to have interrupt in 1ms time basis*/
  if (HAL_SYSTICK_Config(SystemCoreClock / (1000U / uwTickFreq)) > 0U)
 80003a4:	4b12      	ldr	r3, [pc, #72]	; (80003f0 <HAL_InitTick+0x54>)
 80003a6:	681a      	ldr	r2, [r3, #0]
 80003a8:	4b12      	ldr	r3, [pc, #72]	; (80003f4 <HAL_InitTick+0x58>)
 80003aa:	781b      	ldrb	r3, [r3, #0]
 80003ac:	4619      	mov	r1, r3
 80003ae:	f44f 737a 	mov.w	r3, #1000	; 0x3e8
 80003b2:	fbb3 f3f1 	udiv	r3, r3, r1
 80003b6:	fbb2 f3f3 	udiv	r3, r2, r3
 80003ba:	4618      	mov	r0, r3
 80003bc:	f000 f935 	bl	800062a <HAL_SYSTICK_Config>
 80003c0:	4603      	mov	r3, r0
 80003c2:	2b00      	cmp	r3, #0
 80003c4:	d001      	beq.n	80003ca <HAL_InitTick+0x2e>
  {
    return HAL_ERROR;
 80003c6:	2301      	movs	r3, #1
 80003c8:	e00e      	b.n	80003e8 <HAL_InitTick+0x4c>
  }

  /* Configure the SysTick IRQ priority */
  if (TickPriority < (1UL << __NVIC_PRIO_BITS))
 80003ca:	687b      	ldr	r3, [r7, #4]
 80003cc:	2b0f      	cmp	r3, #15
 80003ce:	d80a      	bhi.n	80003e6 <HAL_InitTick+0x4a>
  {
    HAL_NVIC_SetPriority(SysTick_IRQn, TickPriority, 0U);
 80003d0:	2200      	movs	r2, #0
 80003d2:	6879      	ldr	r1, [r7, #4]
 80003d4:	f04f 30ff 	mov.w	r0, #4294967295
 80003d8:	f000 f90b 	bl	80005f2 <HAL_NVIC_SetPriority>
    uwTickPrio = TickPriority;
 80003dc:	4a06      	ldr	r2, [pc, #24]	; (80003f8 <HAL_InitTick+0x5c>)
 80003de:	687b      	ldr	r3, [r7, #4]
 80003e0:	6013      	str	r3, [r2, #0]
  {
    return HAL_ERROR;
  }

  /* Return function status */
  return HAL_OK;
 80003e2:	2300      	movs	r3, #0
 80003e4:	e000      	b.n	80003e8 <HAL_InitTick+0x4c>
    return HAL_ERROR;
 80003e6:	2301      	movs	r3, #1
}
 80003e8:	4618      	mov	r0, r3
 80003ea:	3708      	adds	r7, #8
 80003ec:	46bd      	mov	sp, r7
 80003ee:	bd80      	pop	{r7, pc}
 80003f0:	20000000 	.word	0x20000000
 80003f4:	20000008 	.word	0x20000008
 80003f8:	20000004 	.word	0x20000004

080003fc <HAL_IncTick>:
  * @note This function is declared as __weak to be overwritten in case of other
  *      implementations in user file.
  * @retval None
  */
__weak void HAL_IncTick(void)
{
 80003fc:	b480      	push	{r7}
 80003fe:	af00      	add	r7, sp, #0
  uwTick += uwTickFreq;
 8000400:	4b05      	ldr	r3, [pc, #20]	; (8000418 <HAL_IncTick+0x1c>)
 8000402:	781b      	ldrb	r3, [r3, #0]
 8000404:	461a      	mov	r2, r3
 8000406:	4b05      	ldr	r3, [pc, #20]	; (800041c <HAL_IncTick+0x20>)
 8000408:	681b      	ldr	r3, [r3, #0]
 800040a:	4413      	add	r3, r2
 800040c:	4a03      	ldr	r2, [pc, #12]	; (800041c <HAL_IncTick+0x20>)
 800040e:	6013      	str	r3, [r2, #0]
}
 8000410:	bf00      	nop
 8000412:	46bd      	mov	sp, r7
 8000414:	bc80      	pop	{r7}
 8000416:	4770      	bx	lr
 8000418:	20000008 	.word	0x20000008
 800041c:	20000028 	.word	0x20000028

08000420 <HAL_GetTick>:
  * @note  This function is declared as __weak to be overwritten in case of other
  *       implementations in user file.
  * @retval tick value
  */
__weak uint32_t HAL_GetTick(void)
{
 8000420:	b480      	push	{r7}
 8000422:	af00      	add	r7, sp, #0
  return uwTick;
 8000424:	4b02      	ldr	r3, [pc, #8]	; (8000430 <HAL_GetTick+0x10>)
 8000426:	681b      	ldr	r3, [r3, #0]
}
 8000428:	4618      	mov	r0, r3
 800042a:	46bd      	mov	sp, r7
 800042c:	bc80      	pop	{r7}
 800042e:	4770      	bx	lr
 8000430:	20000028 	.word	0x20000028

08000434 <HAL_Delay>:
  *       implementations in user file.
  * @param Delay specifies the delay time length, in milliseconds.
  * @retval None
  */
__weak void HAL_Delay(uint32_t Delay)
{
 8000434:	b580      	push	{r7, lr}
 8000436:	b084      	sub	sp, #16
 8000438:	af00      	add	r7, sp, #0
 800043a:	6078      	str	r0, [r7, #4]
  uint32_t tickstart = HAL_GetTick();
 800043c:	f7ff fff0 	bl	8000420 <HAL_GetTick>
 8000440:	60b8      	str	r0, [r7, #8]
  uint32_t wait = Delay;
 8000442:	687b      	ldr	r3, [r7, #4]
 8000444:	60fb      	str	r3, [r7, #12]

  /* Add a freq to guarantee minimum wait */
  if (wait < HAL_MAX_DELAY)
 8000446:	68fb      	ldr	r3, [r7, #12]
 8000448:	f1b3 3fff 	cmp.w	r3, #4294967295
 800044c:	d005      	beq.n	800045a <HAL_Delay+0x26>
  {
    wait += (uint32_t)(uwTickFreq);
 800044e:	4b0a      	ldr	r3, [pc, #40]	; (8000478 <HAL_Delay+0x44>)
 8000450:	781b      	ldrb	r3, [r3, #0]
 8000452:	461a      	mov	r2, r3
 8000454:	68fb      	ldr	r3, [r7, #12]
 8000456:	4413      	add	r3, r2
 8000458:	60fb      	str	r3, [r7, #12]
  }

  while ((HAL_GetTick() - tickstart) < wait)
 800045a:	bf00      	nop
 800045c:	f7ff ffe0 	bl	8000420 <HAL_GetTick>
 8000460:	4602      	mov	r2, r0
 8000462:	68bb      	ldr	r3, [r7, #8]
 8000464:	1ad3      	subs	r3, r2, r3
 8000466:	68fa      	ldr	r2, [r7, #12]
 8000468:	429a      	cmp	r2, r3
 800046a:	d8f7      	bhi.n	800045c <HAL_Delay+0x28>
  {
  }
}
 800046c:	bf00      	nop
 800046e:	bf00      	nop
 8000470:	3710      	adds	r7, #16
 8000472:	46bd      	mov	sp, r7
 8000474:	bd80      	pop	{r7, pc}
 8000476:	bf00      	nop
 8000478:	20000008 	.word	0x20000008

0800047c <__NVIC_SetPriorityGrouping>:
           In case of a conflict between priority grouping and available
           priority bits (__NVIC_PRIO_BITS), the smallest possible priority group is set.
  \param [in]      PriorityGroup  Priority grouping field.
 */
__STATIC_INLINE void __NVIC_SetPriorityGrouping(uint32_t PriorityGroup)
{
 800047c:	b480      	push	{r7}
 800047e:	b085      	sub	sp, #20
 8000480:	af00      	add	r7, sp, #0
 8000482:	6078      	str	r0, [r7, #4]
  uint32_t reg_value;
  uint32_t PriorityGroupTmp = (PriorityGroup & (uint32_t)0x07UL);             /* only values 0..7 are used          */
 8000484:	687b      	ldr	r3, [r7, #4]
 8000486:	f003 0307 	and.w	r3, r3, #7
 800048a:	60fb      	str	r3, [r7, #12]

  reg_value  =  SCB->AIRCR;                                                   /* read old register configuration    */
 800048c:	4b0c      	ldr	r3, [pc, #48]	; (80004c0 <__NVIC_SetPriorityGrouping+0x44>)
 800048e:	68db      	ldr	r3, [r3, #12]
 8000490:	60bb      	str	r3, [r7, #8]
  reg_value &= ~((uint32_t)(SCB_AIRCR_VECTKEY_Msk | SCB_AIRCR_PRIGROUP_Msk)); /* clear bits to change               */
 8000492:	68ba      	ldr	r2, [r7, #8]
 8000494:	f64f 03ff 	movw	r3, #63743	; 0xf8ff
 8000498:	4013      	ands	r3, r2
 800049a:	60bb      	str	r3, [r7, #8]
  reg_value  =  (reg_value                                   |
                ((uint32_t)0x5FAUL << SCB_AIRCR_VECTKEY_Pos) |
                (PriorityGroupTmp << SCB_AIRCR_PRIGROUP_Pos) );               /* Insert write key and priority group */
 800049c:	68fb      	ldr	r3, [r7, #12]
 800049e:	021a      	lsls	r2, r3, #8
                ((uint32_t)0x5FAUL << SCB_AIRCR_VECTKEY_Pos) |
 80004a0:	68bb      	ldr	r3, [r7, #8]
 80004a2:	4313      	orrs	r3, r2
  reg_value  =  (reg_value                                   |
 80004a4:	f043 63bf 	orr.w	r3, r3, #100139008	; 0x5f80000
 80004a8:	f443 3300 	orr.w	r3, r3, #131072	; 0x20000
 80004ac:	60bb      	str	r3, [r7, #8]
  SCB->AIRCR =  reg_value;
 80004ae:	4a04      	ldr	r2, [pc, #16]	; (80004c0 <__NVIC_SetPriorityGrouping+0x44>)
 80004b0:	68bb      	ldr	r3, [r7, #8]
 80004b2:	60d3      	str	r3, [r2, #12]
}
 80004b4:	bf00      	nop
 80004b6:	3714      	adds	r7, #20
 80004b8:	46bd      	mov	sp, r7
 80004ba:	bc80      	pop	{r7}
 80004bc:	4770      	bx	lr
 80004be:	bf00      	nop
 80004c0:	e000ed00 	.word	0xe000ed00

080004c4 <__NVIC_GetPriorityGrouping>:
  \brief   Get Priority Grouping
  \details Reads the priority grouping field from the NVIC Interrupt Controller.
  \return                Priority grouping field (SCB->AIRCR [10:8] PRIGROUP field).
 */
__STATIC_INLINE uint32_t __NVIC_GetPriorityGrouping(void)
{
 80004c4:	b480      	push	{r7}
 80004c6:	af00      	add	r7, sp, #0
  return ((uint32_t)((SCB->AIRCR & SCB_AIRCR_PRIGROUP_Msk) >> SCB_AIRCR_PRIGROUP_Pos));
 80004c8:	4b04      	ldr	r3, [pc, #16]	; (80004dc <__NVIC_GetPriorityGrouping+0x18>)
 80004ca:	68db      	ldr	r3, [r3, #12]
 80004cc:	0a1b      	lsrs	r3, r3, #8
 80004ce:	f003 0307 	and.w	r3, r3, #7
}
 80004d2:	4618      	mov	r0, r3
 80004d4:	46bd      	mov	sp, r7
 80004d6:	bc80      	pop	{r7}
 80004d8:	4770      	bx	lr
 80004da:	bf00      	nop
 80004dc:	e000ed00 	.word	0xe000ed00

080004e0 <__NVIC_SetPriority>:
  \param [in]      IRQn  Interrupt number.
  \param [in]  priority  Priority to set.
  \note    The priority cannot be set for every processor exception.
 */
__STATIC_INLINE void __NVIC_SetPriority(IRQn_Type IRQn, uint32_t priority)
{
 80004e0:	b480      	push	{r7}
 80004e2:	b083      	sub	sp, #12
 80004e4:	af00      	add	r7, sp, #0
 80004e6:	4603      	mov	r3, r0
 80004e8:	6039      	str	r1, [r7, #0]
 80004ea:	71fb      	strb	r3, [r7, #7]
  if ((int32_t)(IRQn) >= 0)
 80004ec:	f997 3007 	ldrsb.w	r3, [r7, #7]
 80004f0:	2b00      	cmp	r3, #0
 80004f2:	db0a      	blt.n	800050a <__NVIC_SetPriority+0x2a>
  {
    NVIC->IP[((uint32_t)IRQn)]               = (uint8_t)((priority << (8U - __NVIC_PRIO_BITS)) & (uint32_t)0xFFUL);
 80004f4:	683b      	ldr	r3, [r7, #0]
 80004f6:	b2da      	uxtb	r2, r3
 80004f8:	490c      	ldr	r1, [pc, #48]	; (800052c <__NVIC_SetPriority+0x4c>)
 80004fa:	f997 3007 	ldrsb.w	r3, [r7, #7]
 80004fe:	0112      	lsls	r2, r2, #4
 8000500:	b2d2      	uxtb	r2, r2
 8000502:	440b      	add	r3, r1
 8000504:	f883 2300 	strb.w	r2, [r3, #768]	; 0x300
  }
  else
  {
    SCB->SHP[(((uint32_t)IRQn) & 0xFUL)-4UL] = (uint8_t)((priority << (8U - __NVIC_PRIO_BITS)) & (uint32_t)0xFFUL);
  }
}
 8000508:	e00a      	b.n	8000520 <__NVIC_SetPriority+0x40>
    SCB->SHP[(((uint32_t)IRQn) & 0xFUL)-4UL] = (uint8_t)((priority << (8U - __NVIC_PRIO_BITS)) & (uint32_t)0xFFUL);
 800050a:	683b      	ldr	r3, [r7, #0]
 800050c:	b2da      	uxtb	r2, r3
 800050e:	4908      	ldr	r1, [pc, #32]	; (8000530 <__NVIC_SetPriority+0x50>)
 8000510:	79fb      	ldrb	r3, [r7, #7]
 8000512:	f003 030f 	and.w	r3, r3, #15
 8000516:	3b04      	subs	r3, #4
 8000518:	0112      	lsls	r2, r2, #4
 800051a:	b2d2      	uxtb	r2, r2
 800051c:	440b      	add	r3, r1
 800051e:	761a      	strb	r2, [r3, #24]
}
 8000520:	bf00      	nop
 8000522:	370c      	adds	r7, #12
 8000524:	46bd      	mov	sp, r7
 8000526:	bc80      	pop	{r7}
 8000528:	4770      	bx	lr
 800052a:	bf00      	nop
 800052c:	e000e100 	.word	0xe000e100
 8000530:	e000ed00 	.word	0xe000ed00

08000534 <NVIC_EncodePriority>:
  \param [in]   PreemptPriority  Preemptive priority value (starting from 0).
  \param [in]       SubPriority  Subpriority value (starting from 0).
  \return                        Encoded priority. Value can be used in the function \ref NVIC_SetPriority().
 */
__STATIC_INLINE uint32_t NVIC_EncodePriority (uint32_t PriorityGroup, uint32_t PreemptPriority, uint32_t SubPriority)
{
 8000534:	b480      	push	{r7}
 8000536:	b089      	sub	sp, #36	; 0x24
 8000538:	af00      	add	r7, sp, #0
 800053a:	60f8      	str	r0, [r7, #12]
 800053c:	60b9      	str	r1, [r7, #8]
 800053e:	607a      	str	r2, [r7, #4]
  uint32_t PriorityGroupTmp = (PriorityGroup & (uint32_t)0x07UL);   /* only values 0..7 are used          */
 8000540:	68fb      	ldr	r3, [r7, #12]
 8000542:	f003 0307 	and.w	r3, r3, #7
 8000546:	61fb      	str	r3, [r7, #28]
  uint32_t PreemptPriorityBits;
  uint32_t SubPriorityBits;

  PreemptPriorityBits = ((7UL - PriorityGroupTmp) > (uint32_t)(__NVIC_PRIO_BITS)) ? (uint32_t)(__NVIC_PRIO_BITS) : (uint32_t)(7UL - PriorityGroupTmp);
 8000548:	69fb      	ldr	r3, [r7, #28]
 800054a:	f1c3 0307 	rsb	r3, r3, #7
 800054e:	2b04      	cmp	r3, #4
 8000550:	bf28      	it	cs
 8000552:	2304      	movcs	r3, #4
 8000554:	61bb      	str	r3, [r7, #24]
  SubPriorityBits     = ((PriorityGroupTmp + (uint32_t)(__NVIC_PRIO_BITS)) < (uint32_t)7UL) ? (uint32_t)0UL : (uint32_t)((PriorityGroupTmp - 7UL) + (uint32_t)(__NVIC_PRIO_BITS));
 8000556:	69fb      	ldr	r3, [r7, #28]
 8000558:	3304      	adds	r3, #4
 800055a:	2b06      	cmp	r3, #6
 800055c:	d902      	bls.n	8000564 <NVIC_EncodePriority+0x30>
 800055e:	69fb      	ldr	r3, [r7, #28]
 8000560:	3b03      	subs	r3, #3
 8000562:	e000      	b.n	8000566 <NVIC_EncodePriority+0x32>
 8000564:	2300      	movs	r3, #0
 8000566:	617b      	str	r3, [r7, #20]

  return (
           ((PreemptPriority & (uint32_t)((1UL << (PreemptPriorityBits)) - 1UL)) << SubPriorityBits) |
 8000568:	f04f 32ff 	mov.w	r2, #4294967295
 800056c:	69bb      	ldr	r3, [r7, #24]
 800056e:	fa02 f303 	lsl.w	r3, r2, r3
 8000572:	43da      	mvns	r2, r3
 8000574:	68bb      	ldr	r3, [r7, #8]
 8000576:	401a      	ands	r2, r3
 8000578:	697b      	ldr	r3, [r7, #20]
 800057a:	409a      	lsls	r2, r3
           ((SubPriority     & (uint32_t)((1UL << (SubPriorityBits    )) - 1UL)))
 800057c:	f04f 31ff 	mov.w	r1, #4294967295
 8000580:	697b      	ldr	r3, [r7, #20]
 8000582:	fa01 f303 	lsl.w	r3, r1, r3
 8000586:	43d9      	mvns	r1, r3
 8000588:	687b      	ldr	r3, [r7, #4]
 800058a:	400b      	ands	r3, r1
           ((PreemptPriority & (uint32_t)((1UL << (PreemptPriorityBits)) - 1UL)) << SubPriorityBits) |
 800058c:	4313      	orrs	r3, r2
         );
}
 800058e:	4618      	mov	r0, r3
 8000590:	3724      	adds	r7, #36	; 0x24
 8000592:	46bd      	mov	sp, r7
 8000594:	bc80      	pop	{r7}
 8000596:	4770      	bx	lr

08000598 <SysTick_Config>:
  \note    When the variable <b>__Vendor_SysTickConfig</b> is set to 1, then the
           function <b>SysTick_Config</b> is not included. In this case, the file <b><i>device</i>.h</b>
           must contain a vendor-specific implementation of this function.
 */
__STATIC_INLINE uint32_t SysTick_Config(uint32_t ticks)
{
 8000598:	b580      	push	{r7, lr}
 800059a:	b082      	sub	sp, #8
 800059c:	af00      	add	r7, sp, #0
 800059e:	6078      	str	r0, [r7, #4]
  if ((ticks - 1UL) > SysTick_LOAD_RELOAD_Msk)
 80005a0:	687b      	ldr	r3, [r7, #4]
 80005a2:	3b01      	subs	r3, #1
 80005a4:	f1b3 7f80 	cmp.w	r3, #16777216	; 0x1000000
 80005a8:	d301      	bcc.n	80005ae <SysTick_Config+0x16>
  {
    return (1UL);                                                   /* Reload value impossible */
 80005aa:	2301      	movs	r3, #1
 80005ac:	e00f      	b.n	80005ce <SysTick_Config+0x36>
  }

  SysTick->LOAD  = (uint32_t)(ticks - 1UL);                         /* set reload register */
 80005ae:	4a0a      	ldr	r2, [pc, #40]	; (80005d8 <SysTick_Config+0x40>)
 80005b0:	687b      	ldr	r3, [r7, #4]
 80005b2:	3b01      	subs	r3, #1
 80005b4:	6053      	str	r3, [r2, #4]
  NVIC_SetPriority (SysTick_IRQn, (1UL << __NVIC_PRIO_BITS) - 1UL); /* set Priority for Systick Interrupt */
 80005b6:	210f      	movs	r1, #15
 80005b8:	f04f 30ff 	mov.w	r0, #4294967295
 80005bc:	f7ff ff90 	bl	80004e0 <__NVIC_SetPriority>
  SysTick->VAL   = 0UL;                                             /* Load the SysTick Counter Value */
 80005c0:	4b05      	ldr	r3, [pc, #20]	; (80005d8 <SysTick_Config+0x40>)
 80005c2:	2200      	movs	r2, #0
 80005c4:	609a      	str	r2, [r3, #8]
  SysTick->CTRL  = SysTick_CTRL_CLKSOURCE_Msk |
 80005c6:	4b04      	ldr	r3, [pc, #16]	; (80005d8 <SysTick_Config+0x40>)
 80005c8:	2207      	movs	r2, #7
 80005ca:	601a      	str	r2, [r3, #0]
                   SysTick_CTRL_TICKINT_Msk   |
                   SysTick_CTRL_ENABLE_Msk;                         /* Enable SysTick IRQ and SysTick Timer */
  return (0UL);                                                     /* Function successful */
 80005cc:	2300      	movs	r3, #0
}
 80005ce:	4618      	mov	r0, r3
 80005d0:	3708      	adds	r7, #8
 80005d2:	46bd      	mov	sp, r7
 80005d4:	bd80      	pop	{r7, pc}
 80005d6:	bf00      	nop
 80005d8:	e000e010 	.word	0xe000e010

080005dc <HAL_NVIC_SetPriorityGrouping>:
  * @note   When the NVIC_PriorityGroup_0 is selected, IRQ preemption is no more possible. 
  *         The pending IRQ priority will be managed only by the subpriority. 
  * @retval None
  */
void HAL_NVIC_SetPriorityGrouping(uint32_t PriorityGroup)
{
 80005dc:	b580      	push	{r7, lr}
 80005de:	b082      	sub	sp, #8
 80005e0:	af00      	add	r7, sp, #0
 80005e2:	6078      	str	r0, [r7, #4]
  /* Check the parameters */
  assert_param(IS_NVIC_PRIORITY_GROUP(PriorityGroup));
  
  /* Set the PRIGROUP[10:8] bits according to the PriorityGroup parameter value */
  NVIC_SetPriorityGrouping(PriorityGroup);
 80005e4:	6878      	ldr	r0, [r7, #4]
 80005e6:	f7ff ff49 	bl	800047c <__NVIC_SetPriorityGrouping>
}
 80005ea:	bf00      	nop
 80005ec:	3708      	adds	r7, #8
 80005ee:	46bd      	mov	sp, r7
 80005f0:	bd80      	pop	{r7, pc}

080005f2 <HAL_NVIC_SetPriority>:
  *         This parameter can be a value between 0 and 15
  *         A lower priority value indicates a higher priority.          
  * @retval None
  */
void HAL_NVIC_SetPriority(IRQn_Type IRQn, uint32_t PreemptPriority, uint32_t SubPriority)
{ 
 80005f2:	b580      	push	{r7, lr}
 80005f4:	b086      	sub	sp, #24
 80005f6:	af00      	add	r7, sp, #0
 80005f8:	4603      	mov	r3, r0
 80005fa:	60b9      	str	r1, [r7, #8]
 80005fc:	607a      	str	r2, [r7, #4]
 80005fe:	73fb      	strb	r3, [r7, #15]
  uint32_t prioritygroup = 0x00U;
 8000600:	2300      	movs	r3, #0
 8000602:	617b      	str	r3, [r7, #20]
  
  /* Check the parameters */
  assert_param(IS_NVIC_SUB_PRIORITY(SubPriority));
  assert_param(IS_NVIC_PREEMPTION_PRIORITY(PreemptPriority));
  
  prioritygroup = NVIC_GetPriorityGrouping();
 8000604:	f7ff ff5e 	bl	80004c4 <__NVIC_GetPriorityGrouping>
 8000608:	6178      	str	r0, [r7, #20]
  
  NVIC_SetPriority(IRQn, NVIC_EncodePriority(prioritygroup, PreemptPriority, SubPriority));
 800060a:	687a      	ldr	r2, [r7, #4]
 800060c:	68b9      	ldr	r1, [r7, #8]
 800060e:	6978      	ldr	r0, [r7, #20]
 8000610:	f7ff ff90 	bl	8000534 <NVIC_EncodePriority>
 8000614:	4602      	mov	r2, r0
 8000616:	f997 300f 	ldrsb.w	r3, [r7, #15]
 800061a:	4611      	mov	r1, r2
 800061c:	4618      	mov	r0, r3
 800061e:	f7ff ff5f 	bl	80004e0 <__NVIC_SetPriority>
}
 8000622:	bf00      	nop
 8000624:	3718      	adds	r7, #24
 8000626:	46bd      	mov	sp, r7
 8000628:	bd80      	pop	{r7, pc}

0800062a <HAL_SYSTICK_Config>:
  * @param  TicksNumb: Specifies the ticks Number of ticks between two interrupts.
  * @retval status:  - 0  Function succeeded.
  *                  - 1  Function failed.
  */
uint32_t HAL_SYSTICK_Config(uint32_t TicksNumb)
{
 800062a:	b580      	push	{r7, lr}
 800062c:	b082      	sub	sp, #8
 800062e:	af00      	add	r7, sp, #0
 8000630:	6078      	str	r0, [r7, #4]
   return SysTick_Config(TicksNumb);
 8000632:	6878      	ldr	r0, [r7, #4]
 8000634:	f7ff ffb0 	bl	8000598 <SysTick_Config>
 8000638:	4603      	mov	r3, r0
}
 800063a:	4618      	mov	r0, r3
 800063c:	3708      	adds	r7, #8
 800063e:	46bd      	mov	sp, r7
 8000640:	bd80      	pop	{r7, pc}
	...

08000644 <HAL_GPIO_Init>:
  * @param  GPIO_Init: pointer to a GPIO_InitTypeDef structure that contains
  *         the configuration information for the specified GPIO peripheral.
  * @retval None
  */
void HAL_GPIO_Init(GPIO_TypeDef  *GPIOx, GPIO_InitTypeDef *GPIO_Init)
{
 8000644:	b480      	push	{r7}
 8000646:	b08b      	sub	sp, #44	; 0x2c
 8000648:	af00      	add	r7, sp, #0
 800064a:	6078      	str	r0, [r7, #4]
 800064c:	6039      	str	r1, [r7, #0]
  uint32_t position = 0x00u;
 800064e:	2300      	movs	r3, #0
 8000650:	627b      	str	r3, [r7, #36]	; 0x24
  uint32_t ioposition;
  uint32_t iocurrent;
  uint32_t temp;
  uint32_t config = 0x00u;
 8000652:	2300      	movs	r3, #0
 8000654:	623b      	str	r3, [r7, #32]
  assert_param(IS_GPIO_ALL_INSTANCE(GPIOx));
  assert_param(IS_GPIO_PIN(GPIO_Init->Pin));
  assert_param(IS_GPIO_MODE(GPIO_Init->Mode));

  /* Configure the port pins */
  while (((GPIO_Init->Pin) >> position) != 0x00u)
 8000656:	e161      	b.n	800091c <HAL_GPIO_Init+0x2d8>
  {
    /* Get the IO position */
    ioposition = (0x01uL << position);
 8000658:	2201      	movs	r2, #1
 800065a:	6a7b      	ldr	r3, [r7, #36]	; 0x24
 800065c:	fa02 f303 	lsl.w	r3, r2, r3
 8000660:	61fb      	str	r3, [r7, #28]

    /* Get the current IO position */
    iocurrent = (uint32_t)(GPIO_Init->Pin) & ioposition;
 8000662:	683b      	ldr	r3, [r7, #0]
 8000664:	681b      	ldr	r3, [r3, #0]
 8000666:	69fa      	ldr	r2, [r7, #28]
 8000668:	4013      	ands	r3, r2
 800066a:	61bb      	str	r3, [r7, #24]

    if (iocurrent == ioposition)
 800066c:	69ba      	ldr	r2, [r7, #24]
 800066e:	69fb      	ldr	r3, [r7, #28]
 8000670:	429a      	cmp	r2, r3
 8000672:	f040 8150 	bne.w	8000916 <HAL_GPIO_Init+0x2d2>
    {
      /* Check the Alternate function parameters */
      assert_param(IS_GPIO_AF_INSTANCE(GPIOx));

      /* Based on the required mode, filling config variable with MODEy[1:0] and CNFy[3:2] corresponding bits */
      switch (GPIO_Init->Mode)
 8000676:	683b      	ldr	r3, [r7, #0]
 8000678:	685b      	ldr	r3, [r3, #4]
 800067a:	4a97      	ldr	r2, [pc, #604]	; (80008d8 <HAL_GPIO_Init+0x294>)
 800067c:	4293      	cmp	r3, r2
 800067e:	d05e      	beq.n	800073e <HAL_GPIO_Init+0xfa>
 8000680:	4a95      	ldr	r2, [pc, #596]	; (80008d8 <HAL_GPIO_Init+0x294>)
 8000682:	4293      	cmp	r3, r2
 8000684:	d875      	bhi.n	8000772 <HAL_GPIO_Init+0x12e>
 8000686:	4a95      	ldr	r2, [pc, #596]	; (80008dc <HAL_GPIO_Init+0x298>)
 8000688:	4293      	cmp	r3, r2
 800068a:	d058      	beq.n	800073e <HAL_GPIO_Init+0xfa>
 800068c:	4a93      	ldr	r2, [pc, #588]	; (80008dc <HAL_GPIO_Init+0x298>)
 800068e:	4293      	cmp	r3, r2
 8000690:	d86f      	bhi.n	8000772 <HAL_GPIO_Init+0x12e>
 8000692:	4a93      	ldr	r2, [pc, #588]	; (80008e0 <HAL_GPIO_Init+0x29c>)
 8000694:	4293      	cmp	r3, r2
 8000696:	d052      	beq.n	800073e <HAL_GPIO_Init+0xfa>
 8000698:	4a91      	ldr	r2, [pc, #580]	; (80008e0 <HAL_GPIO_Init+0x29c>)
 800069a:	4293      	cmp	r3, r2
 800069c:	d869      	bhi.n	8000772 <HAL_GPIO_Init+0x12e>
 800069e:	4a91      	ldr	r2, [pc, #580]	; (80008e4 <HAL_GPIO_Init+0x2a0>)
 80006a0:	4293      	cmp	r3, r2
 80006a2:	d04c      	beq.n	800073e <HAL_GPIO_Init+0xfa>
 80006a4:	4a8f      	ldr	r2, [pc, #572]	; (80008e4 <HAL_GPIO_Init+0x2a0>)
 80006a6:	4293      	cmp	r3, r2
 80006a8:	d863      	bhi.n	8000772 <HAL_GPIO_Init+0x12e>
 80006aa:	4a8f      	ldr	r2, [pc, #572]	; (80008e8 <HAL_GPIO_Init+0x2a4>)
 80006ac:	4293      	cmp	r3, r2
 80006ae:	d046      	beq.n	800073e <HAL_GPIO_Init+0xfa>
 80006b0:	4a8d      	ldr	r2, [pc, #564]	; (80008e8 <HAL_GPIO_Init+0x2a4>)
 80006b2:	4293      	cmp	r3, r2
 80006b4:	d85d      	bhi.n	8000772 <HAL_GPIO_Init+0x12e>
 80006b6:	2b12      	cmp	r3, #18
 80006b8:	d82a      	bhi.n	8000710 <HAL_GPIO_Init+0xcc>
 80006ba:	2b12      	cmp	r3, #18
 80006bc:	d859      	bhi.n	8000772 <HAL_GPIO_Init+0x12e>
 80006be:	a201      	add	r2, pc, #4	; (adr r2, 80006c4 <HAL_GPIO_Init+0x80>)
 80006c0:	f852 f023 	ldr.w	pc, [r2, r3, lsl #2]
 80006c4:	0800073f 	.word	0x0800073f
 80006c8:	08000719 	.word	0x08000719
 80006cc:	0800072b 	.word	0x0800072b
 80006d0:	0800076d 	.word	0x0800076d
 80006d4:	08000773 	.word	0x08000773
 80006d8:	08000773 	.word	0x08000773
 80006dc:	08000773 	.word	0x08000773
 80006e0:	08000773 	.word	0x08000773
 80006e4:	08000773 	.word	0x08000773
 80006e8:	08000773 	.word	0x08000773
 80006ec:	08000773 	.word	0x08000773
 80006f0:	08000773 	.word	0x08000773
 80006f4:	08000773 	.word	0x08000773
 80006f8:	08000773 	.word	0x08000773
 80006fc:	08000773 	.word	0x08000773
 8000700:	08000773 	.word	0x08000773
 8000704:	08000773 	.word	0x08000773
 8000708:	08000721 	.word	0x08000721
 800070c:	08000735 	.word	0x08000735
 8000710:	4a76      	ldr	r2, [pc, #472]	; (80008ec <HAL_GPIO_Init+0x2a8>)
 8000712:	4293      	cmp	r3, r2
 8000714:	d013      	beq.n	800073e <HAL_GPIO_Init+0xfa>
          config = GPIO_CR_MODE_INPUT + GPIO_CR_CNF_ANALOG;
          break;

        /* Parameters are checked with assert_param */
        default:
          break;
 8000716:	e02c      	b.n	8000772 <HAL_GPIO_Init+0x12e>
          config = GPIO_Init->Speed + GPIO_CR_CNF_GP_OUTPUT_PP;
 8000718:	683b      	ldr	r3, [r7, #0]
 800071a:	68db      	ldr	r3, [r3, #12]
 800071c:	623b      	str	r3, [r7, #32]
          break;
 800071e:	e029      	b.n	8000774 <HAL_GPIO_Init+0x130>
          config = GPIO_Init->Speed + GPIO_CR_CNF_GP_OUTPUT_OD;
 8000720:	683b      	ldr	r3, [r7, #0]
 8000722:	68db      	ldr	r3, [r3, #12]
 8000724:	3304      	adds	r3, #4
 8000726:	623b      	str	r3, [r7, #32]
          break;
 8000728:	e024      	b.n	8000774 <HAL_GPIO_Init+0x130>
          config = GPIO_Init->Speed + GPIO_CR_CNF_AF_OUTPUT_PP;
 800072a:	683b      	ldr	r3, [r7, #0]
 800072c:	68db      	ldr	r3, [r3, #12]
 800072e:	3308      	adds	r3, #8
 8000730:	623b      	str	r3, [r7, #32]
          break;
 8000732:	e01f      	b.n	8000774 <HAL_GPIO_Init+0x130>
          config = GPIO_Init->Speed + GPIO_CR_CNF_AF_OUTPUT_OD;
 8000734:	683b      	ldr	r3, [r7, #0]
 8000736:	68db      	ldr	r3, [r3, #12]
 8000738:	330c      	adds	r3, #12
 800073a:	623b      	str	r3, [r7, #32]
          break;
 800073c:	e01a      	b.n	8000774 <HAL_GPIO_Init+0x130>
          if (GPIO_Init->Pull == GPIO_NOPULL)
 800073e:	683b      	ldr	r3, [r7, #0]
 8000740:	689b      	ldr	r3, [r3, #8]
 8000742:	2b00      	cmp	r3, #0
 8000744:	d102      	bne.n	800074c <HAL_GPIO_Init+0x108>
            config = GPIO_CR_MODE_INPUT + GPIO_CR_CNF_INPUT_FLOATING;
 8000746:	2304      	movs	r3, #4
 8000748:	623b      	str	r3, [r7, #32]
          break;
 800074a:	e013      	b.n	8000774 <HAL_GPIO_Init+0x130>
          else if (GPIO_Init->Pull == GPIO_PULLUP)
 800074c:	683b      	ldr	r3, [r7, #0]
 800074e:	689b      	ldr	r3, [r3, #8]
 8000750:	2b01      	cmp	r3, #1
 8000752:	d105      	bne.n	8000760 <HAL_GPIO_Init+0x11c>
            config = GPIO_CR_MODE_INPUT + GPIO_CR_CNF_INPUT_PU_PD;
 8000754:	2308      	movs	r3, #8
 8000756:	623b      	str	r3, [r7, #32]
            GPIOx->BSRR = ioposition;
 8000758:	687b      	ldr	r3, [r7, #4]
 800075a:	69fa      	ldr	r2, [r7, #28]
 800075c:	611a      	str	r2, [r3, #16]
          break;
 800075e:	e009      	b.n	8000774 <HAL_GPIO_Init+0x130>
            config = GPIO_CR_MODE_INPUT + GPIO_CR_CNF_INPUT_PU_PD;
 8000760:	2308      	movs	r3, #8
 8000762:	623b      	str	r3, [r7, #32]
            GPIOx->BRR = ioposition;
 8000764:	687b      	ldr	r3, [r7, #4]
 8000766:	69fa      	ldr	r2, [r7, #28]
 8000768:	615a      	str	r2, [r3, #20]
          break;
 800076a:	e003      	b.n	8000774 <HAL_GPIO_Init+0x130>
          config = GPIO_CR_MODE_INPUT + GPIO_CR_CNF_ANALOG;
 800076c:	2300      	movs	r3, #0
 800076e:	623b      	str	r3, [r7, #32]
          break;
 8000770:	e000      	b.n	8000774 <HAL_GPIO_Init+0x130>
          break;
 8000772:	bf00      	nop
      }

      /* Check if the current bit belongs to first half or last half of the pin count number
       in order to address CRH or CRL register*/
      configregister = (iocurrent < GPIO_PIN_8) ? &GPIOx->CRL     : &GPIOx->CRH;
 8000774:	69bb      	ldr	r3, [r7, #24]
 8000776:	2bff      	cmp	r3, #255	; 0xff
 8000778:	d801      	bhi.n	800077e <HAL_GPIO_Init+0x13a>
 800077a:	687b      	ldr	r3, [r7, #4]
 800077c:	e001      	b.n	8000782 <HAL_GPIO_Init+0x13e>
 800077e:	687b      	ldr	r3, [r7, #4]
 8000780:	3304      	adds	r3, #4
 8000782:	617b      	str	r3, [r7, #20]
      registeroffset = (iocurrent < GPIO_PIN_8) ? (position << 2u) : ((position - 8u) << 2u);
 8000784:	69bb      	ldr	r3, [r7, #24]
 8000786:	2bff      	cmp	r3, #255	; 0xff
 8000788:	d802      	bhi.n	8000790 <HAL_GPIO_Init+0x14c>
 800078a:	6a7b      	ldr	r3, [r7, #36]	; 0x24
 800078c:	009b      	lsls	r3, r3, #2
 800078e:	e002      	b.n	8000796 <HAL_GPIO_Init+0x152>
 8000790:	6a7b      	ldr	r3, [r7, #36]	; 0x24
 8000792:	3b08      	subs	r3, #8
 8000794:	009b      	lsls	r3, r3, #2
 8000796:	613b      	str	r3, [r7, #16]

      /* Apply the new configuration of the pin to the register */
      MODIFY_REG((*configregister), ((GPIO_CRL_MODE0 | GPIO_CRL_CNF0) << registeroffset), (config << registeroffset));
 8000798:	697b      	ldr	r3, [r7, #20]
 800079a:	681a      	ldr	r2, [r3, #0]
 800079c:	210f      	movs	r1, #15
 800079e:	693b      	ldr	r3, [r7, #16]
 80007a0:	fa01 f303 	lsl.w	r3, r1, r3
 80007a4:	43db      	mvns	r3, r3
 80007a6:	401a      	ands	r2, r3
 80007a8:	6a39      	ldr	r1, [r7, #32]
 80007aa:	693b      	ldr	r3, [r7, #16]
 80007ac:	fa01 f303 	lsl.w	r3, r1, r3
 80007b0:	431a      	orrs	r2, r3
 80007b2:	697b      	ldr	r3, [r7, #20]
 80007b4:	601a      	str	r2, [r3, #0]

      /*--------------------- EXTI Mode Configuration ------------------------*/
      /* Configure the External Interrupt or event for the current IO */
      if ((GPIO_Init->Mode & EXTI_MODE) == EXTI_MODE)
 80007b6:	683b      	ldr	r3, [r7, #0]
 80007b8:	685b      	ldr	r3, [r3, #4]
 80007ba:	f003 5380 	and.w	r3, r3, #268435456	; 0x10000000
 80007be:	2b00      	cmp	r3, #0
 80007c0:	f000 80a9 	beq.w	8000916 <HAL_GPIO_Init+0x2d2>
      {
        /* Enable AFIO Clock */
        __HAL_RCC_AFIO_CLK_ENABLE();
 80007c4:	4b4a      	ldr	r3, [pc, #296]	; (80008f0 <HAL_GPIO_Init+0x2ac>)
 80007c6:	699b      	ldr	r3, [r3, #24]
 80007c8:	4a49      	ldr	r2, [pc, #292]	; (80008f0 <HAL_GPIO_Init+0x2ac>)
 80007ca:	f043 0301 	orr.w	r3, r3, #1
 80007ce:	6193      	str	r3, [r2, #24]
 80007d0:	4b47      	ldr	r3, [pc, #284]	; (80008f0 <HAL_GPIO_Init+0x2ac>)
 80007d2:	699b      	ldr	r3, [r3, #24]
 80007d4:	f003 0301 	and.w	r3, r3, #1
 80007d8:	60bb      	str	r3, [r7, #8]
 80007da:	68bb      	ldr	r3, [r7, #8]
        temp = AFIO->EXTICR[position >> 2u];
 80007dc:	4a45      	ldr	r2, [pc, #276]	; (80008f4 <HAL_GPIO_Init+0x2b0>)
 80007de:	6a7b      	ldr	r3, [r7, #36]	; 0x24
 80007e0:	089b      	lsrs	r3, r3, #2
 80007e2:	3302      	adds	r3, #2
 80007e4:	f852 3023 	ldr.w	r3, [r2, r3, lsl #2]
 80007e8:	60fb      	str	r3, [r7, #12]
        CLEAR_BIT(temp, (0x0Fu) << (4u * (position & 0x03u)));
 80007ea:	6a7b      	ldr	r3, [r7, #36]	; 0x24
 80007ec:	f003 0303 	and.w	r3, r3, #3
 80007f0:	009b      	lsls	r3, r3, #2
 80007f2:	220f      	movs	r2, #15
 80007f4:	fa02 f303 	lsl.w	r3, r2, r3
 80007f8:	43db      	mvns	r3, r3
 80007fa:	68fa      	ldr	r2, [r7, #12]
 80007fc:	4013      	ands	r3, r2
 80007fe:	60fb      	str	r3, [r7, #12]
        SET_BIT(temp, (GPIO_GET_INDEX(GPIOx)) << (4u * (position & 0x03u)));
 8000800:	687b      	ldr	r3, [r7, #4]
 8000802:	4a3d      	ldr	r2, [pc, #244]	; (80008f8 <HAL_GPIO_Init+0x2b4>)
 8000804:	4293      	cmp	r3, r2
 8000806:	d00d      	beq.n	8000824 <HAL_GPIO_Init+0x1e0>
 8000808:	687b      	ldr	r3, [r7, #4]
 800080a:	4a3c      	ldr	r2, [pc, #240]	; (80008fc <HAL_GPIO_Init+0x2b8>)
 800080c:	4293      	cmp	r3, r2
 800080e:	d007      	beq.n	8000820 <HAL_GPIO_Init+0x1dc>
 8000810:	687b      	ldr	r3, [r7, #4]
 8000812:	4a3b      	ldr	r2, [pc, #236]	; (8000900 <HAL_GPIO_Init+0x2bc>)
 8000814:	4293      	cmp	r3, r2
 8000816:	d101      	bne.n	800081c <HAL_GPIO_Init+0x1d8>
 8000818:	2302      	movs	r3, #2
 800081a:	e004      	b.n	8000826 <HAL_GPIO_Init+0x1e2>
 800081c:	2303      	movs	r3, #3
 800081e:	e002      	b.n	8000826 <HAL_GPIO_Init+0x1e2>
 8000820:	2301      	movs	r3, #1
 8000822:	e000      	b.n	8000826 <HAL_GPIO_Init+0x1e2>
 8000824:	2300      	movs	r3, #0
 8000826:	6a7a      	ldr	r2, [r7, #36]	; 0x24
 8000828:	f002 0203 	and.w	r2, r2, #3
 800082c:	0092      	lsls	r2, r2, #2
 800082e:	4093      	lsls	r3, r2
 8000830:	68fa      	ldr	r2, [r7, #12]
 8000832:	4313      	orrs	r3, r2
 8000834:	60fb      	str	r3, [r7, #12]
        AFIO->EXTICR[position >> 2u] = temp;
 8000836:	492f      	ldr	r1, [pc, #188]	; (80008f4 <HAL_GPIO_Init+0x2b0>)
 8000838:	6a7b      	ldr	r3, [r7, #36]	; 0x24
 800083a:	089b      	lsrs	r3, r3, #2
 800083c:	3302      	adds	r3, #2
 800083e:	68fa      	ldr	r2, [r7, #12]
 8000840:	f841 2023 	str.w	r2, [r1, r3, lsl #2]


        /* Configure the interrupt mask */
        if ((GPIO_Init->Mode & GPIO_MODE_IT) == GPIO_MODE_IT)
 8000844:	683b      	ldr	r3, [r7, #0]
 8000846:	685b      	ldr	r3, [r3, #4]
 8000848:	f403 3380 	and.w	r3, r3, #65536	; 0x10000
 800084c:	2b00      	cmp	r3, #0
 800084e:	d006      	beq.n	800085e <HAL_GPIO_Init+0x21a>
        {
          SET_BIT(EXTI->IMR, iocurrent);
 8000850:	4b2c      	ldr	r3, [pc, #176]	; (8000904 <HAL_GPIO_Init+0x2c0>)
 8000852:	681a      	ldr	r2, [r3, #0]
 8000854:	492b      	ldr	r1, [pc, #172]	; (8000904 <HAL_GPIO_Init+0x2c0>)
 8000856:	69bb      	ldr	r3, [r7, #24]
 8000858:	4313      	orrs	r3, r2
 800085a:	600b      	str	r3, [r1, #0]
 800085c:	e006      	b.n	800086c <HAL_GPIO_Init+0x228>
        }
        else
        {
          CLEAR_BIT(EXTI->IMR, iocurrent);
 800085e:	4b29      	ldr	r3, [pc, #164]	; (8000904 <HAL_GPIO_Init+0x2c0>)
 8000860:	681a      	ldr	r2, [r3, #0]
 8000862:	69bb      	ldr	r3, [r7, #24]
 8000864:	43db      	mvns	r3, r3
 8000866:	4927      	ldr	r1, [pc, #156]	; (8000904 <HAL_GPIO_Init+0x2c0>)
 8000868:	4013      	ands	r3, r2
 800086a:	600b      	str	r3, [r1, #0]
        }

        /* Configure the event mask */
        if ((GPIO_Init->Mode & GPIO_MODE_EVT) == GPIO_MODE_EVT)
 800086c:	683b      	ldr	r3, [r7, #0]
 800086e:	685b      	ldr	r3, [r3, #4]
 8000870:	f403 3300 	and.w	r3, r3, #131072	; 0x20000
 8000874:	2b00      	cmp	r3, #0
 8000876:	d006      	beq.n	8000886 <HAL_GPIO_Init+0x242>
        {
          SET_BIT(EXTI->EMR, iocurrent);
 8000878:	4b22      	ldr	r3, [pc, #136]	; (8000904 <HAL_GPIO_Init+0x2c0>)
 800087a:	685a      	ldr	r2, [r3, #4]
 800087c:	4921      	ldr	r1, [pc, #132]	; (8000904 <HAL_GPIO_Init+0x2c0>)
 800087e:	69bb      	ldr	r3, [r7, #24]
 8000880:	4313      	orrs	r3, r2
 8000882:	604b      	str	r3, [r1, #4]
 8000884:	e006      	b.n	8000894 <HAL_GPIO_Init+0x250>
        }
        else
        {
          CLEAR_BIT(EXTI->EMR, iocurrent);
 8000886:	4b1f      	ldr	r3, [pc, #124]	; (8000904 <HAL_GPIO_Init+0x2c0>)
 8000888:	685a      	ldr	r2, [r3, #4]
 800088a:	69bb      	ldr	r3, [r7, #24]
 800088c:	43db      	mvns	r3, r3
 800088e:	491d      	ldr	r1, [pc, #116]	; (8000904 <HAL_GPIO_Init+0x2c0>)
 8000890:	4013      	ands	r3, r2
 8000892:	604b      	str	r3, [r1, #4]
        }

        /* Enable or disable the rising trigger */
        if ((GPIO_Init->Mode & RISING_EDGE) == RISING_EDGE)
 8000894:	683b      	ldr	r3, [r7, #0]
 8000896:	685b      	ldr	r3, [r3, #4]
 8000898:	f403 1380 	and.w	r3, r3, #1048576	; 0x100000
 800089c:	2b00      	cmp	r3, #0
 800089e:	d006      	beq.n	80008ae <HAL_GPIO_Init+0x26a>
        {
          SET_BIT(EXTI->RTSR, iocurrent);
 80008a0:	4b18      	ldr	r3, [pc, #96]	; (8000904 <HAL_GPIO_Init+0x2c0>)
 80008a2:	689a      	ldr	r2, [r3, #8]
 80008a4:	4917      	ldr	r1, [pc, #92]	; (8000904 <HAL_GPIO_Init+0x2c0>)
 80008a6:	69bb      	ldr	r3, [r7, #24]
 80008a8:	4313      	orrs	r3, r2
 80008aa:	608b      	str	r3, [r1, #8]
 80008ac:	e006      	b.n	80008bc <HAL_GPIO_Init+0x278>
        }
        else
        {
          CLEAR_BIT(EXTI->RTSR, iocurrent);
 80008ae:	4b15      	ldr	r3, [pc, #84]	; (8000904 <HAL_GPIO_Init+0x2c0>)
 80008b0:	689a      	ldr	r2, [r3, #8]
 80008b2:	69bb      	ldr	r3, [r7, #24]
 80008b4:	43db      	mvns	r3, r3
 80008b6:	4913      	ldr	r1, [pc, #76]	; (8000904 <HAL_GPIO_Init+0x2c0>)
 80008b8:	4013      	ands	r3, r2
 80008ba:	608b      	str	r3, [r1, #8]
        }

        /* Enable or disable the falling trigger */
        if ((GPIO_Init->Mode & FALLING_EDGE) == FALLING_EDGE)
 80008bc:	683b      	ldr	r3, [r7, #0]
 80008be:	685b      	ldr	r3, [r3, #4]
 80008c0:	f403 1300 	and.w	r3, r3, #2097152	; 0x200000
 80008c4:	2b00      	cmp	r3, #0
 80008c6:	d01f      	beq.n	8000908 <HAL_GPIO_Init+0x2c4>
        {
          SET_BIT(EXTI->FTSR, iocurrent);
 80008c8:	4b0e      	ldr	r3, [pc, #56]	; (8000904 <HAL_GPIO_Init+0x2c0>)
 80008ca:	68da      	ldr	r2, [r3, #12]
 80008cc:	490d      	ldr	r1, [pc, #52]	; (8000904 <HAL_GPIO_Init+0x2c0>)
 80008ce:	69bb      	ldr	r3, [r7, #24]
 80008d0:	4313      	orrs	r3, r2
 80008d2:	60cb      	str	r3, [r1, #12]
 80008d4:	e01f      	b.n	8000916 <HAL_GPIO_Init+0x2d2>
 80008d6:	bf00      	nop
 80008d8:	10320000 	.word	0x10320000
 80008dc:	10310000 	.word	0x10310000
 80008e0:	10220000 	.word	0x10220000
 80008e4:	10210000 	.word	0x10210000
 80008e8:	10120000 	.word	0x10120000
 80008ec:	10110000 	.word	0x10110000
 80008f0:	40021000 	.word	0x40021000
 80008f4:	40010000 	.word	0x40010000
 80008f8:	40010800 	.word	0x40010800
 80008fc:	40010c00 	.word	0x40010c00
 8000900:	40011000 	.word	0x40011000
 8000904:	40010400 	.word	0x40010400
        }
        else
        {
          CLEAR_BIT(EXTI->FTSR, iocurrent);
 8000908:	4b0b      	ldr	r3, [pc, #44]	; (8000938 <HAL_GPIO_Init+0x2f4>)
 800090a:	68da      	ldr	r2, [r3, #12]
 800090c:	69bb      	ldr	r3, [r7, #24]
 800090e:	43db      	mvns	r3, r3
 8000910:	4909      	ldr	r1, [pc, #36]	; (8000938 <HAL_GPIO_Init+0x2f4>)
 8000912:	4013      	ands	r3, r2
 8000914:	60cb      	str	r3, [r1, #12]
        }
      }
    }

	position++;
 8000916:	6a7b      	ldr	r3, [r7, #36]	; 0x24
 8000918:	3301      	adds	r3, #1
 800091a:	627b      	str	r3, [r7, #36]	; 0x24
  while (((GPIO_Init->Pin) >> position) != 0x00u)
 800091c:	683b      	ldr	r3, [r7, #0]
 800091e:	681a      	ldr	r2, [r3, #0]
 8000920:	6a7b      	ldr	r3, [r7, #36]	; 0x24
 8000922:	fa22 f303 	lsr.w	r3, r2, r3
 8000926:	2b00      	cmp	r3, #0
 8000928:	f47f ae96 	bne.w	8000658 <HAL_GPIO_Init+0x14>
  }
}
 800092c:	bf00      	nop
 800092e:	bf00      	nop
 8000930:	372c      	adds	r7, #44	; 0x2c
 8000932:	46bd      	mov	sp, r7
 8000934:	bc80      	pop	{r7}
 8000936:	4770      	bx	lr
 8000938:	40010400 	.word	0x40010400

0800093c <HAL_GPIO_WritePin>:
  *            @arg GPIO_PIN_RESET: to clear the port pin
  *            @arg GPIO_PIN_SET: to set the port pin
  * @retval None
  */
void HAL_GPIO_WritePin(GPIO_TypeDef *GPIOx, uint16_t GPIO_Pin, GPIO_PinState PinState)
{
 800093c:	b480      	push	{r7}
 800093e:	b083      	sub	sp, #12
 8000940:	af00      	add	r7, sp, #0
 8000942:	6078      	str	r0, [r7, #4]
 8000944:	460b      	mov	r3, r1
 8000946:	807b      	strh	r3, [r7, #2]
 8000948:	4613      	mov	r3, r2
 800094a:	707b      	strb	r3, [r7, #1]
  /* Check the parameters */
  assert_param(IS_GPIO_PIN(GPIO_Pin));
  assert_param(IS_GPIO_PIN_ACTION(PinState));

  if (PinState != GPIO_PIN_RESET)
 800094c:	787b      	ldrb	r3, [r7, #1]
 800094e:	2b00      	cmp	r3, #0
 8000950:	d003      	beq.n	800095a <HAL_GPIO_WritePin+0x1e>
  {
    GPIOx->BSRR = GPIO_Pin;
 8000952:	887a      	ldrh	r2, [r7, #2]
 8000954:	687b      	ldr	r3, [r7, #4]
 8000956:	611a      	str	r2, [r3, #16]
  }
  else
  {
    GPIOx->BSRR = (uint32_t)GPIO_Pin << 16u;
  }
}
 8000958:	e003      	b.n	8000962 <HAL_GPIO_WritePin+0x26>
    GPIOx->BSRR = (uint32_t)GPIO_Pin << 16u;
 800095a:	887b      	ldrh	r3, [r7, #2]
 800095c:	041a      	lsls	r2, r3, #16
 800095e:	687b      	ldr	r3, [r7, #4]
 8000960:	611a      	str	r2, [r3, #16]
}
 8000962:	bf00      	nop
 8000964:	370c      	adds	r7, #12
 8000966:	46bd      	mov	sp, r7
 8000968:	bc80      	pop	{r7}
 800096a:	4770      	bx	lr

0800096c <HAL_RCC_OscConfig>:
  *         supported by this macro. User should request a transition to HSE Off
  *         first and then HSE On or HSE Bypass.
  * @retval HAL status
  */
HAL_StatusTypeDef HAL_RCC_OscConfig(RCC_OscInitTypeDef  *RCC_OscInitStruct)
{
 800096c:	b580      	push	{r7, lr}
 800096e:	b086      	sub	sp, #24
 8000970:	af00      	add	r7, sp, #0
 8000972:	6078      	str	r0, [r7, #4]
  uint32_t tickstart;
  uint32_t pll_config;

  /* Check Null pointer */
  if (RCC_OscInitStruct == NULL)
 8000974:	687b      	ldr	r3, [r7, #4]
 8000976:	2b00      	cmp	r3, #0
 8000978:	d101      	bne.n	800097e <HAL_RCC_OscConfig+0x12>
  {
    return HAL_ERROR;
 800097a:	2301      	movs	r3, #1
 800097c:	e272      	b.n	8000e64 <HAL_RCC_OscConfig+0x4f8>

  /* Check the parameters */
  assert_param(IS_RCC_OSCILLATORTYPE(RCC_OscInitStruct->OscillatorType));

  /*------------------------------- HSE Configuration ------------------------*/
  if (((RCC_OscInitStruct->OscillatorType) & RCC_OSCILLATORTYPE_HSE) == RCC_OSCILLATORTYPE_HSE)
 800097e:	687b      	ldr	r3, [r7, #4]
 8000980:	681b      	ldr	r3, [r3, #0]
 8000982:	f003 0301 	and.w	r3, r3, #1
 8000986:	2b00      	cmp	r3, #0
 8000988:	f000 8087 	beq.w	8000a9a <HAL_RCC_OscConfig+0x12e>
  {
    /* Check the parameters */
    assert_param(IS_RCC_HSE(RCC_OscInitStruct->HSEState));

    /* When the HSE is used as system clock or clock source for PLL in these cases it is not allowed to be disabled */
    if ((__HAL_RCC_GET_SYSCLK_SOURCE() == RCC_SYSCLKSOURCE_STATUS_HSE)
 800098c:	4b92      	ldr	r3, [pc, #584]	; (8000bd8 <HAL_RCC_OscConfig+0x26c>)
 800098e:	685b      	ldr	r3, [r3, #4]
 8000990:	f003 030c 	and.w	r3, r3, #12
 8000994:	2b04      	cmp	r3, #4
 8000996:	d00c      	beq.n	80009b2 <HAL_RCC_OscConfig+0x46>
        || ((__HAL_RCC_GET_SYSCLK_SOURCE() == RCC_SYSCLKSOURCE_STATUS_PLLCLK) && (__HAL_RCC_GET_PLL_OSCSOURCE() == RCC_PLLSOURCE_HSE)))
 8000998:	4b8f      	ldr	r3, [pc, #572]	; (8000bd8 <HAL_RCC_OscConfig+0x26c>)
 800099a:	685b      	ldr	r3, [r3, #4]
 800099c:	f003 030c 	and.w	r3, r3, #12
 80009a0:	2b08      	cmp	r3, #8
 80009a2:	d112      	bne.n	80009ca <HAL_RCC_OscConfig+0x5e>
 80009a4:	4b8c      	ldr	r3, [pc, #560]	; (8000bd8 <HAL_RCC_OscConfig+0x26c>)
 80009a6:	685b      	ldr	r3, [r3, #4]
 80009a8:	f403 3380 	and.w	r3, r3, #65536	; 0x10000
 80009ac:	f5b3 3f80 	cmp.w	r3, #65536	; 0x10000
 80009b0:	d10b      	bne.n	80009ca <HAL_RCC_OscConfig+0x5e>
    {
      if ((__HAL_RCC_GET_FLAG(RCC_FLAG_HSERDY) != RESET) && (RCC_OscInitStruct->HSEState == RCC_HSE_OFF))
 80009b2:	4b89      	ldr	r3, [pc, #548]	; (8000bd8 <HAL_RCC_OscConfig+0x26c>)
 80009b4:	681b      	ldr	r3, [r3, #0]
 80009b6:	f403 3300 	and.w	r3, r3, #131072	; 0x20000
 80009ba:	2b00      	cmp	r3, #0
 80009bc:	d06c      	beq.n	8000a98 <HAL_RCC_OscConfig+0x12c>
 80009be:	687b      	ldr	r3, [r7, #4]
 80009c0:	685b      	ldr	r3, [r3, #4]
 80009c2:	2b00      	cmp	r3, #0
 80009c4:	d168      	bne.n	8000a98 <HAL_RCC_OscConfig+0x12c>
      {
        return HAL_ERROR;
 80009c6:	2301      	movs	r3, #1
 80009c8:	e24c      	b.n	8000e64 <HAL_RCC_OscConfig+0x4f8>
      }
    }
    else
    {
      /* Set the new HSE configuration ---------------------------------------*/
      __HAL_RCC_HSE_CONFIG(RCC_OscInitStruct->HSEState);
 80009ca:	687b      	ldr	r3, [r7, #4]
 80009cc:	685b      	ldr	r3, [r3, #4]
 80009ce:	f5b3 3f80 	cmp.w	r3, #65536	; 0x10000
 80009d2:	d106      	bne.n	80009e2 <HAL_RCC_OscConfig+0x76>
 80009d4:	4b80      	ldr	r3, [pc, #512]	; (8000bd8 <HAL_RCC_OscConfig+0x26c>)
 80009d6:	681b      	ldr	r3, [r3, #0]
 80009d8:	4a7f      	ldr	r2, [pc, #508]	; (8000bd8 <HAL_RCC_OscConfig+0x26c>)
 80009da:	f443 3380 	orr.w	r3, r3, #65536	; 0x10000
 80009de:	6013      	str	r3, [r2, #0]
 80009e0:	e02e      	b.n	8000a40 <HAL_RCC_OscConfig+0xd4>
 80009e2:	687b      	ldr	r3, [r7, #4]
 80009e4:	685b      	ldr	r3, [r3, #4]
 80009e6:	2b00      	cmp	r3, #0
 80009e8:	d10c      	bne.n	8000a04 <HAL_RCC_OscConfig+0x98>
 80009ea:	4b7b      	ldr	r3, [pc, #492]	; (8000bd8 <HAL_RCC_OscConfig+0x26c>)
 80009ec:	681b      	ldr	r3, [r3, #0]
 80009ee:	4a7a      	ldr	r2, [pc, #488]	; (8000bd8 <HAL_RCC_OscConfig+0x26c>)
 80009f0:	f423 3380 	bic.w	r3, r3, #65536	; 0x10000
 80009f4:	6013      	str	r3, [r2, #0]
 80009f6:	4b78      	ldr	r3, [pc, #480]	; (8000bd8 <HAL_RCC_OscConfig+0x26c>)
 80009f8:	681b      	ldr	r3, [r3, #0]
 80009fa:	4a77      	ldr	r2, [pc, #476]	; (8000bd8 <HAL_RCC_OscConfig+0x26c>)
 80009fc:	f423 2380 	bic.w	r3, r3, #262144	; 0x40000
 8000a00:	6013      	str	r3, [r2, #0]
 8000a02:	e01d      	b.n	8000a40 <HAL_RCC_OscConfig+0xd4>
 8000a04:	687b      	ldr	r3, [r7, #4]
 8000a06:	685b      	ldr	r3, [r3, #4]
 8000a08:	f5b3 2fa0 	cmp.w	r3, #327680	; 0x50000
 8000a0c:	d10c      	bne.n	8000a28 <HAL_RCC_OscConfig+0xbc>
 8000a0e:	4b72      	ldr	r3, [pc, #456]	; (8000bd8 <HAL_RCC_OscConfig+0x26c>)
 8000a10:	681b      	ldr	r3, [r3, #0]
 8000a12:	4a71      	ldr	r2, [pc, #452]	; (8000bd8 <HAL_RCC_OscConfig+0x26c>)
 8000a14:	f443 2380 	orr.w	r3, r3, #262144	; 0x40000
 8000a18:	6013      	str	r3, [r2, #0]
 8000a1a:	4b6f      	ldr	r3, [pc, #444]	; (8000bd8 <HAL_RCC_OscConfig+0x26c>)
 8000a1c:	681b      	ldr	r3, [r3, #0]
 8000a1e:	4a6e      	ldr	r2, [pc, #440]	; (8000bd8 <HAL_RCC_OscConfig+0x26c>)
 8000a20:	f443 3380 	orr.w	r3, r3, #65536	; 0x10000
 8000a24:	6013      	str	r3, [r2, #0]
 8000a26:	e00b      	b.n	8000a40 <HAL_RCC_OscConfig+0xd4>
 8000a28:	4b6b      	ldr	r3, [pc, #428]	; (8000bd8 <HAL_RCC_OscConfig+0x26c>)
 8000a2a:	681b      	ldr	r3, [r3, #0]
 8000a2c:	4a6a      	ldr	r2, [pc, #424]	; (8000bd8 <HAL_RCC_OscConfig+0x26c>)
 8000a2e:	f423 3380 	bic.w	r3, r3, #65536	; 0x10000
 8000a32:	6013      	str	r3, [r2, #0]
 8000a34:	4b68      	ldr	r3, [pc, #416]	; (8000bd8 <HAL_RCC_OscConfig+0x26c>)
 8000a36:	681b      	ldr	r3, [r3, #0]
 8000a38:	4a67      	ldr	r2, [pc, #412]	; (8000bd8 <HAL_RCC_OscConfig+0x26c>)
 8000a3a:	f423 2380 	bic.w	r3, r3, #262144	; 0x40000
 8000a3e:	6013      	str	r3, [r2, #0]


      /* Check the HSE State */
      if (RCC_OscInitStruct->HSEState != RCC_HSE_OFF)
 8000a40:	687b      	ldr	r3, [r7, #4]
 8000a42:	685b      	ldr	r3, [r3, #4]
 8000a44:	2b00      	cmp	r3, #0
 8000a46:	d013      	beq.n	8000a70 <HAL_RCC_OscConfig+0x104>
      {
        /* Get Start Tick */
        tickstart = HAL_GetTick();
 8000a48:	f7ff fcea 	bl	8000420 <HAL_GetTick>
 8000a4c:	6138      	str	r0, [r7, #16]

        /* Wait till HSE is ready */
        while (__HAL_RCC_GET_FLAG(RCC_FLAG_HSERDY) == RESET)
 8000a4e:	e008      	b.n	8000a62 <HAL_RCC_OscConfig+0xf6>
        {
          if ((HAL_GetTick() - tickstart) > HSE_TIMEOUT_VALUE)
 8000a50:	f7ff fce6 	bl	8000420 <HAL_GetTick>
 8000a54:	4602      	mov	r2, r0
 8000a56:	693b      	ldr	r3, [r7, #16]
 8000a58:	1ad3      	subs	r3, r2, r3
 8000a5a:	2b64      	cmp	r3, #100	; 0x64
 8000a5c:	d901      	bls.n	8000a62 <HAL_RCC_OscConfig+0xf6>
          {
            return HAL_TIMEOUT;
 8000a5e:	2303      	movs	r3, #3
 8000a60:	e200      	b.n	8000e64 <HAL_RCC_OscConfig+0x4f8>
        while (__HAL_RCC_GET_FLAG(RCC_FLAG_HSERDY) == RESET)
 8000a62:	4b5d      	ldr	r3, [pc, #372]	; (8000bd8 <HAL_RCC_OscConfig+0x26c>)
 8000a64:	681b      	ldr	r3, [r3, #0]
 8000a66:	f403 3300 	and.w	r3, r3, #131072	; 0x20000
 8000a6a:	2b00      	cmp	r3, #0
 8000a6c:	d0f0      	beq.n	8000a50 <HAL_RCC_OscConfig+0xe4>
 8000a6e:	e014      	b.n	8000a9a <HAL_RCC_OscConfig+0x12e>
        }
      }
      else
      {
        /* Get Start Tick */
        tickstart = HAL_GetTick();
 8000a70:	f7ff fcd6 	bl	8000420 <HAL_GetTick>
 8000a74:	6138      	str	r0, [r7, #16]

        /* Wait till HSE is disabled */
        while (__HAL_RCC_GET_FLAG(RCC_FLAG_HSERDY) != RESET)
 8000a76:	e008      	b.n	8000a8a <HAL_RCC_OscConfig+0x11e>
        {
          if ((HAL_GetTick() - tickstart) > HSE_TIMEOUT_VALUE)
 8000a78:	f7ff fcd2 	bl	8000420 <HAL_GetTick>
 8000a7c:	4602      	mov	r2, r0
 8000a7e:	693b      	ldr	r3, [r7, #16]
 8000a80:	1ad3      	subs	r3, r2, r3
 8000a82:	2b64      	cmp	r3, #100	; 0x64
 8000a84:	d901      	bls.n	8000a8a <HAL_RCC_OscConfig+0x11e>
          {
            return HAL_TIMEOUT;
 8000a86:	2303      	movs	r3, #3
 8000a88:	e1ec      	b.n	8000e64 <HAL_RCC_OscConfig+0x4f8>
        while (__HAL_RCC_GET_FLAG(RCC_FLAG_HSERDY) != RESET)
 8000a8a:	4b53      	ldr	r3, [pc, #332]	; (8000bd8 <HAL_RCC_OscConfig+0x26c>)
 8000a8c:	681b      	ldr	r3, [r3, #0]
 8000a8e:	f403 3300 	and.w	r3, r3, #131072	; 0x20000
 8000a92:	2b00      	cmp	r3, #0
 8000a94:	d1f0      	bne.n	8000a78 <HAL_RCC_OscConfig+0x10c>
 8000a96:	e000      	b.n	8000a9a <HAL_RCC_OscConfig+0x12e>
      if ((__HAL_RCC_GET_FLAG(RCC_FLAG_HSERDY) != RESET) && (RCC_OscInitStruct->HSEState == RCC_HSE_OFF))
 8000a98:	bf00      	nop
        }
      }
    }
  }
  /*----------------------------- HSI Configuration --------------------------*/
  if (((RCC_OscInitStruct->OscillatorType) & RCC_OSCILLATORTYPE_HSI) == RCC_OSCILLATORTYPE_HSI)
 8000a9a:	687b      	ldr	r3, [r7, #4]
 8000a9c:	681b      	ldr	r3, [r3, #0]
 8000a9e:	f003 0302 	and.w	r3, r3, #2
 8000aa2:	2b00      	cmp	r3, #0
 8000aa4:	d063      	beq.n	8000b6e <HAL_RCC_OscConfig+0x202>
    /* Check the parameters */
    assert_param(IS_RCC_HSI(RCC_OscInitStruct->HSIState));
    assert_param(IS_RCC_CALIBRATION_VALUE(RCC_OscInitStruct->HSICalibrationValue));

    /* Check if HSI is used as system clock or as PLL source when PLL is selected as system clock */
    if ((__HAL_RCC_GET_SYSCLK_SOURCE() == RCC_SYSCLKSOURCE_STATUS_HSI)
 8000aa6:	4b4c      	ldr	r3, [pc, #304]	; (8000bd8 <HAL_RCC_OscConfig+0x26c>)
 8000aa8:	685b      	ldr	r3, [r3, #4]
 8000aaa:	f003 030c 	and.w	r3, r3, #12
 8000aae:	2b00      	cmp	r3, #0
 8000ab0:	d00b      	beq.n	8000aca <HAL_RCC_OscConfig+0x15e>
        || ((__HAL_RCC_GET_SYSCLK_SOURCE() == RCC_SYSCLKSOURCE_STATUS_PLLCLK) && (__HAL_RCC_GET_PLL_OSCSOURCE() == RCC_PLLSOURCE_HSI_DIV2)))
 8000ab2:	4b49      	ldr	r3, [pc, #292]	; (8000bd8 <HAL_RCC_OscConfig+0x26c>)
 8000ab4:	685b      	ldr	r3, [r3, #4]
 8000ab6:	f003 030c 	and.w	r3, r3, #12
 8000aba:	2b08      	cmp	r3, #8
 8000abc:	d11c      	bne.n	8000af8 <HAL_RCC_OscConfig+0x18c>
 8000abe:	4b46      	ldr	r3, [pc, #280]	; (8000bd8 <HAL_RCC_OscConfig+0x26c>)
 8000ac0:	685b      	ldr	r3, [r3, #4]
 8000ac2:	f403 3380 	and.w	r3, r3, #65536	; 0x10000
 8000ac6:	2b00      	cmp	r3, #0
 8000ac8:	d116      	bne.n	8000af8 <HAL_RCC_OscConfig+0x18c>
    {
      /* When HSI is used as system clock it will not disabled */
      if ((__HAL_RCC_GET_FLAG(RCC_FLAG_HSIRDY) != RESET) && (RCC_OscInitStruct->HSIState != RCC_HSI_ON))
 8000aca:	4b43      	ldr	r3, [pc, #268]	; (8000bd8 <HAL_RCC_OscConfig+0x26c>)
 8000acc:	681b      	ldr	r3, [r3, #0]
 8000ace:	f003 0302 	and.w	r3, r3, #2
 8000ad2:	2b00      	cmp	r3, #0
 8000ad4:	d005      	beq.n	8000ae2 <HAL_RCC_OscConfig+0x176>
 8000ad6:	687b      	ldr	r3, [r7, #4]
 8000ad8:	691b      	ldr	r3, [r3, #16]
 8000ada:	2b01      	cmp	r3, #1
 8000adc:	d001      	beq.n	8000ae2 <HAL_RCC_OscConfig+0x176>
      {
        return HAL_ERROR;
 8000ade:	2301      	movs	r3, #1
 8000ae0:	e1c0      	b.n	8000e64 <HAL_RCC_OscConfig+0x4f8>
      }
      /* Otherwise, just the calibration is allowed */
      else
      {
        /* Adjusts the Internal High Speed oscillator (HSI) calibration value.*/
        __HAL_RCC_HSI_CALIBRATIONVALUE_ADJUST(RCC_OscInitStruct->HSICalibrationValue);
 8000ae2:	4b3d      	ldr	r3, [pc, #244]	; (8000bd8 <HAL_RCC_OscConfig+0x26c>)
 8000ae4:	681b      	ldr	r3, [r3, #0]
 8000ae6:	f023 02f8 	bic.w	r2, r3, #248	; 0xf8
 8000aea:	687b      	ldr	r3, [r7, #4]
 8000aec:	695b      	ldr	r3, [r3, #20]
 8000aee:	00db      	lsls	r3, r3, #3
 8000af0:	4939      	ldr	r1, [pc, #228]	; (8000bd8 <HAL_RCC_OscConfig+0x26c>)
 8000af2:	4313      	orrs	r3, r2
 8000af4:	600b      	str	r3, [r1, #0]
      if ((__HAL_RCC_GET_FLAG(RCC_FLAG_HSIRDY) != RESET) && (RCC_OscInitStruct->HSIState != RCC_HSI_ON))
 8000af6:	e03a      	b.n	8000b6e <HAL_RCC_OscConfig+0x202>
      }
    }
    else
    {
      /* Check the HSI State */
      if (RCC_OscInitStruct->HSIState != RCC_HSI_OFF)
 8000af8:	687b      	ldr	r3, [r7, #4]
 8000afa:	691b      	ldr	r3, [r3, #16]
 8000afc:	2b00      	cmp	r3, #0
 8000afe:	d020      	beq.n	8000b42 <HAL_RCC_OscConfig+0x1d6>
      {
        /* Enable the Internal High Speed oscillator (HSI). */
        __HAL_RCC_HSI_ENABLE();
 8000b00:	4b36      	ldr	r3, [pc, #216]	; (8000bdc <HAL_RCC_OscConfig+0x270>)
 8000b02:	2201      	movs	r2, #1
 8000b04:	601a      	str	r2, [r3, #0]

        /* Get Start Tick */
        tickstart = HAL_GetTick();
 8000b06:	f7ff fc8b 	bl	8000420 <HAL_GetTick>
 8000b0a:	6138      	str	r0, [r7, #16]

        /* Wait till HSI is ready */
        while (__HAL_RCC_GET_FLAG(RCC_FLAG_HSIRDY) == RESET)
 8000b0c:	e008      	b.n	8000b20 <HAL_RCC_OscConfig+0x1b4>
        {
          if ((HAL_GetTick() - tickstart) > HSI_TIMEOUT_VALUE)
 8000b0e:	f7ff fc87 	bl	8000420 <HAL_GetTick>
 8000b12:	4602      	mov	r2, r0
 8000b14:	693b      	ldr	r3, [r7, #16]
 8000b16:	1ad3      	subs	r3, r2, r3
 8000b18:	2b02      	cmp	r3, #2
 8000b1a:	d901      	bls.n	8000b20 <HAL_RCC_OscConfig+0x1b4>
          {
            return HAL_TIMEOUT;
 8000b1c:	2303      	movs	r3, #3
 8000b1e:	e1a1      	b.n	8000e64 <HAL_RCC_OscConfig+0x4f8>
        while (__HAL_RCC_GET_FLAG(RCC_FLAG_HSIRDY) == RESET)
 8000b20:	4b2d      	ldr	r3, [pc, #180]	; (8000bd8 <HAL_RCC_OscConfig+0x26c>)
 8000b22:	681b      	ldr	r3, [r3, #0]
 8000b24:	f003 0302 	and.w	r3, r3, #2
 8000b28:	2b00      	cmp	r3, #0
 8000b2a:	d0f0      	beq.n	8000b0e <HAL_RCC_OscConfig+0x1a2>
          }
        }

        /* Adjusts the Internal High Speed oscillator (HSI) calibration value.*/
        __HAL_RCC_HSI_CALIBRATIONVALUE_ADJUST(RCC_OscInitStruct->HSICalibrationValue);
 8000b2c:	4b2a      	ldr	r3, [pc, #168]	; (8000bd8 <HAL_RCC_OscConfig+0x26c>)
 8000b2e:	681b      	ldr	r3, [r3, #0]
 8000b30:	f023 02f8 	bic.w	r2, r3, #248	; 0xf8
 8000b34:	687b      	ldr	r3, [r7, #4]
 8000b36:	695b      	ldr	r3, [r3, #20]
 8000b38:	00db      	lsls	r3, r3, #3
 8000b3a:	4927      	ldr	r1, [pc, #156]	; (8000bd8 <HAL_RCC_OscConfig+0x26c>)
 8000b3c:	4313      	orrs	r3, r2
 8000b3e:	600b      	str	r3, [r1, #0]
 8000b40:	e015      	b.n	8000b6e <HAL_RCC_OscConfig+0x202>
      }
      else
      {
        /* Disable the Internal High Speed oscillator (HSI). */
        __HAL_RCC_HSI_DISABLE();
 8000b42:	4b26      	ldr	r3, [pc, #152]	; (8000bdc <HAL_RCC_OscConfig+0x270>)
 8000b44:	2200      	movs	r2, #0
 8000b46:	601a      	str	r2, [r3, #0]

        /* Get Start Tick */
        tickstart = HAL_GetTick();
 8000b48:	f7ff fc6a 	bl	8000420 <HAL_GetTick>
 8000b4c:	6138      	str	r0, [r7, #16]

        /* Wait till HSI is disabled */
        while (__HAL_RCC_GET_FLAG(RCC_FLAG_HSIRDY) != RESET)
 8000b4e:	e008      	b.n	8000b62 <HAL_RCC_OscConfig+0x1f6>
        {
          if ((HAL_GetTick() - tickstart) > HSI_TIMEOUT_VALUE)
 8000b50:	f7ff fc66 	bl	8000420 <HAL_GetTick>
 8000b54:	4602      	mov	r2, r0
 8000b56:	693b      	ldr	r3, [r7, #16]
 8000b58:	1ad3      	subs	r3, r2, r3
 8000b5a:	2b02      	cmp	r3, #2
 8000b5c:	d901      	bls.n	8000b62 <HAL_RCC_OscConfig+0x1f6>
          {
            return HAL_TIMEOUT;
 8000b5e:	2303      	movs	r3, #3
 8000b60:	e180      	b.n	8000e64 <HAL_RCC_OscConfig+0x4f8>
        while (__HAL_RCC_GET_FLAG(RCC_FLAG_HSIRDY) != RESET)
 8000b62:	4b1d      	ldr	r3, [pc, #116]	; (8000bd8 <HAL_RCC_OscConfig+0x26c>)
 8000b64:	681b      	ldr	r3, [r3, #0]
 8000b66:	f003 0302 	and.w	r3, r3, #2
 8000b6a:	2b00      	cmp	r3, #0
 8000b6c:	d1f0      	bne.n	8000b50 <HAL_RCC_OscConfig+0x1e4>
        }
      }
    }
  }
  /*------------------------------ LSI Configuration -------------------------*/
  if (((RCC_OscInitStruct->OscillatorType) & RCC_OSCILLATORTYPE_LSI) == RCC_OSCILLATORTYPE_LSI)
 8000b6e:	687b      	ldr	r3, [r7, #4]
 8000b70:	681b      	ldr	r3, [r3, #0]
 8000b72:	f003 0308 	and.w	r3, r3, #8
 8000b76:	2b00      	cmp	r3, #0
 8000b78:	d03a      	beq.n	8000bf0 <HAL_RCC_OscConfig+0x284>
  {
    /* Check the parameters */
    assert_param(IS_RCC_LSI(RCC_OscInitStruct->LSIState));

    /* Check the LSI State */
    if (RCC_OscInitStruct->LSIState != RCC_LSI_OFF)
 8000b7a:	687b      	ldr	r3, [r7, #4]
 8000b7c:	699b      	ldr	r3, [r3, #24]
 8000b7e:	2b00      	cmp	r3, #0
 8000b80:	d019      	beq.n	8000bb6 <HAL_RCC_OscConfig+0x24a>
    {
      /* Enable the Internal Low Speed oscillator (LSI). */
      __HAL_RCC_LSI_ENABLE();
 8000b82:	4b17      	ldr	r3, [pc, #92]	; (8000be0 <HAL_RCC_OscConfig+0x274>)
 8000b84:	2201      	movs	r2, #1
 8000b86:	601a      	str	r2, [r3, #0]

      /* Get Start Tick */
      tickstart = HAL_GetTick();
 8000b88:	f7ff fc4a 	bl	8000420 <HAL_GetTick>
 8000b8c:	6138      	str	r0, [r7, #16]

      /* Wait till LSI is ready */
      while (__HAL_RCC_GET_FLAG(RCC_FLAG_LSIRDY) == RESET)
 8000b8e:	e008      	b.n	8000ba2 <HAL_RCC_OscConfig+0x236>
      {
        if ((HAL_GetTick() - tickstart) > LSI_TIMEOUT_VALUE)
 8000b90:	f7ff fc46 	bl	8000420 <HAL_GetTick>
 8000b94:	4602      	mov	r2, r0
 8000b96:	693b      	ldr	r3, [r7, #16]
 8000b98:	1ad3      	subs	r3, r2, r3
 8000b9a:	2b02      	cmp	r3, #2
 8000b9c:	d901      	bls.n	8000ba2 <HAL_RCC_OscConfig+0x236>
        {
          return HAL_TIMEOUT;
 8000b9e:	2303      	movs	r3, #3
 8000ba0:	e160      	b.n	8000e64 <HAL_RCC_OscConfig+0x4f8>
      while (__HAL_RCC_GET_FLAG(RCC_FLAG_LSIRDY) == RESET)
 8000ba2:	4b0d      	ldr	r3, [pc, #52]	; (8000bd8 <HAL_RCC_OscConfig+0x26c>)
 8000ba4:	6a5b      	ldr	r3, [r3, #36]	; 0x24
 8000ba6:	f003 0302 	and.w	r3, r3, #2
 8000baa:	2b00      	cmp	r3, #0
 8000bac:	d0f0      	beq.n	8000b90 <HAL_RCC_OscConfig+0x224>
        }
      }
      /*  To have a fully stabilized clock in the specified range, a software delay of 1ms
          should be added.*/
      RCC_Delay(1);
 8000bae:	2001      	movs	r0, #1
 8000bb0:	f000 faa6 	bl	8001100 <RCC_Delay>
 8000bb4:	e01c      	b.n	8000bf0 <HAL_RCC_OscConfig+0x284>
    }
    else
    {
      /* Disable the Internal Low Speed oscillator (LSI). */
      __HAL_RCC_LSI_DISABLE();
 8000bb6:	4b0a      	ldr	r3, [pc, #40]	; (8000be0 <HAL_RCC_OscConfig+0x274>)
 8000bb8:	2200      	movs	r2, #0
 8000bba:	601a      	str	r2, [r3, #0]

      /* Get Start Tick */
      tickstart = HAL_GetTick();
 8000bbc:	f7ff fc30 	bl	8000420 <HAL_GetTick>
 8000bc0:	6138      	str	r0, [r7, #16]

      /* Wait till LSI is disabled */
      while (__HAL_RCC_GET_FLAG(RCC_FLAG_LSIRDY) != RESET)
 8000bc2:	e00f      	b.n	8000be4 <HAL_RCC_OscConfig+0x278>
      {
        if ((HAL_GetTick() - tickstart) > LSI_TIMEOUT_VALUE)
 8000bc4:	f7ff fc2c 	bl	8000420 <HAL_GetTick>
 8000bc8:	4602      	mov	r2, r0
 8000bca:	693b      	ldr	r3, [r7, #16]
 8000bcc:	1ad3      	subs	r3, r2, r3
 8000bce:	2b02      	cmp	r3, #2
 8000bd0:	d908      	bls.n	8000be4 <HAL_RCC_OscConfig+0x278>
        {
          return HAL_TIMEOUT;
 8000bd2:	2303      	movs	r3, #3
 8000bd4:	e146      	b.n	8000e64 <HAL_RCC_OscConfig+0x4f8>
 8000bd6:	bf00      	nop
 8000bd8:	40021000 	.word	0x40021000
 8000bdc:	42420000 	.word	0x42420000
 8000be0:	42420480 	.word	0x42420480
      while (__HAL_RCC_GET_FLAG(RCC_FLAG_LSIRDY) != RESET)
 8000be4:	4b92      	ldr	r3, [pc, #584]	; (8000e30 <HAL_RCC_OscConfig+0x4c4>)
 8000be6:	6a5b      	ldr	r3, [r3, #36]	; 0x24
 8000be8:	f003 0302 	and.w	r3, r3, #2
 8000bec:	2b00      	cmp	r3, #0
 8000bee:	d1e9      	bne.n	8000bc4 <HAL_RCC_OscConfig+0x258>
        }
      }
    }
  }
  /*------------------------------ LSE Configuration -------------------------*/
  if (((RCC_OscInitStruct->OscillatorType) & RCC_OSCILLATORTYPE_LSE) == RCC_OSCILLATORTYPE_LSE)
 8000bf0:	687b      	ldr	r3, [r7, #4]
 8000bf2:	681b      	ldr	r3, [r3, #0]
 8000bf4:	f003 0304 	and.w	r3, r3, #4
 8000bf8:	2b00      	cmp	r3, #0
 8000bfa:	f000 80a6 	beq.w	8000d4a <HAL_RCC_OscConfig+0x3de>
  {
    FlagStatus       pwrclkchanged = RESET;
 8000bfe:	2300      	movs	r3, #0
 8000c00:	75fb      	strb	r3, [r7, #23]
    /* Check the parameters */
    assert_param(IS_RCC_LSE(RCC_OscInitStruct->LSEState));

    /* Update LSE configuration in Backup Domain control register    */
    /* Requires to enable write access to Backup Domain of necessary */
    if (__HAL_RCC_PWR_IS_CLK_DISABLED())
 8000c02:	4b8b      	ldr	r3, [pc, #556]	; (8000e30 <HAL_RCC_OscConfig+0x4c4>)
 8000c04:	69db      	ldr	r3, [r3, #28]
 8000c06:	f003 5380 	and.w	r3, r3, #268435456	; 0x10000000
 8000c0a:	2b00      	cmp	r3, #0
 8000c0c:	d10d      	bne.n	8000c2a <HAL_RCC_OscConfig+0x2be>
    {
      __HAL_RCC_PWR_CLK_ENABLE();
 8000c0e:	4b88      	ldr	r3, [pc, #544]	; (8000e30 <HAL_RCC_OscConfig+0x4c4>)
 8000c10:	69db      	ldr	r3, [r3, #28]
 8000c12:	4a87      	ldr	r2, [pc, #540]	; (8000e30 <HAL_RCC_OscConfig+0x4c4>)
 8000c14:	f043 5380 	orr.w	r3, r3, #268435456	; 0x10000000
 8000c18:	61d3      	str	r3, [r2, #28]
 8000c1a:	4b85      	ldr	r3, [pc, #532]	; (8000e30 <HAL_RCC_OscConfig+0x4c4>)
 8000c1c:	69db      	ldr	r3, [r3, #28]
 8000c1e:	f003 5380 	and.w	r3, r3, #268435456	; 0x10000000
 8000c22:	60bb      	str	r3, [r7, #8]
 8000c24:	68bb      	ldr	r3, [r7, #8]
      pwrclkchanged = SET;
 8000c26:	2301      	movs	r3, #1
 8000c28:	75fb      	strb	r3, [r7, #23]
    }

    if (HAL_IS_BIT_CLR(PWR->CR, PWR_CR_DBP))
 8000c2a:	4b82      	ldr	r3, [pc, #520]	; (8000e34 <HAL_RCC_OscConfig+0x4c8>)
 8000c2c:	681b      	ldr	r3, [r3, #0]
 8000c2e:	f403 7380 	and.w	r3, r3, #256	; 0x100
 8000c32:	2b00      	cmp	r3, #0
 8000c34:	d118      	bne.n	8000c68 <HAL_RCC_OscConfig+0x2fc>
    {
      /* Enable write access to Backup domain */
      SET_BIT(PWR->CR, PWR_CR_DBP);
 8000c36:	4b7f      	ldr	r3, [pc, #508]	; (8000e34 <HAL_RCC_OscConfig+0x4c8>)
 8000c38:	681b      	ldr	r3, [r3, #0]
 8000c3a:	4a7e      	ldr	r2, [pc, #504]	; (8000e34 <HAL_RCC_OscConfig+0x4c8>)
 8000c3c:	f443 7380 	orr.w	r3, r3, #256	; 0x100
 8000c40:	6013      	str	r3, [r2, #0]

      /* Wait for Backup domain Write protection disable */
      tickstart = HAL_GetTick();
 8000c42:	f7ff fbed 	bl	8000420 <HAL_GetTick>
 8000c46:	6138      	str	r0, [r7, #16]

      while (HAL_IS_BIT_CLR(PWR->CR, PWR_CR_DBP))
 8000c48:	e008      	b.n	8000c5c <HAL_RCC_OscConfig+0x2f0>
      {
        if ((HAL_GetTick() - tickstart) > RCC_DBP_TIMEOUT_VALUE)
 8000c4a:	f7ff fbe9 	bl	8000420 <HAL_GetTick>
 8000c4e:	4602      	mov	r2, r0
 8000c50:	693b      	ldr	r3, [r7, #16]
 8000c52:	1ad3      	subs	r3, r2, r3
 8000c54:	2b64      	cmp	r3, #100	; 0x64
 8000c56:	d901      	bls.n	8000c5c <HAL_RCC_OscConfig+0x2f0>
        {
          return HAL_TIMEOUT;
 8000c58:	2303      	movs	r3, #3
 8000c5a:	e103      	b.n	8000e64 <HAL_RCC_OscConfig+0x4f8>
      while (HAL_IS_BIT_CLR(PWR->CR, PWR_CR_DBP))
 8000c5c:	4b75      	ldr	r3, [pc, #468]	; (8000e34 <HAL_RCC_OscConfig+0x4c8>)
 8000c5e:	681b      	ldr	r3, [r3, #0]
 8000c60:	f403 7380 	and.w	r3, r3, #256	; 0x100
 8000c64:	2b00      	cmp	r3, #0
 8000c66:	d0f0      	beq.n	8000c4a <HAL_RCC_OscConfig+0x2de>
        }
      }
    }

    /* Set the new LSE configuration -----------------------------------------*/
    __HAL_RCC_LSE_CONFIG(RCC_OscInitStruct->LSEState);
 8000c68:	687b      	ldr	r3, [r7, #4]
 8000c6a:	68db      	ldr	r3, [r3, #12]
 8000c6c:	2b01      	cmp	r3, #1
 8000c6e:	d106      	bne.n	8000c7e <HAL_RCC_OscConfig+0x312>
 8000c70:	4b6f      	ldr	r3, [pc, #444]	; (8000e30 <HAL_RCC_OscConfig+0x4c4>)
 8000c72:	6a1b      	ldr	r3, [r3, #32]
 8000c74:	4a6e      	ldr	r2, [pc, #440]	; (8000e30 <HAL_RCC_OscConfig+0x4c4>)
 8000c76:	f043 0301 	orr.w	r3, r3, #1
 8000c7a:	6213      	str	r3, [r2, #32]
 8000c7c:	e02d      	b.n	8000cda <HAL_RCC_OscConfig+0x36e>
 8000c7e:	687b      	ldr	r3, [r7, #4]
 8000c80:	68db      	ldr	r3, [r3, #12]
 8000c82:	2b00      	cmp	r3, #0
 8000c84:	d10c      	bne.n	8000ca0 <HAL_RCC_OscConfig+0x334>
 8000c86:	4b6a      	ldr	r3, [pc, #424]	; (8000e30 <HAL_RCC_OscConfig+0x4c4>)
 8000c88:	6a1b      	ldr	r3, [r3, #32]
 8000c8a:	4a69      	ldr	r2, [pc, #420]	; (8000e30 <HAL_RCC_OscConfig+0x4c4>)
 8000c8c:	f023 0301 	bic.w	r3, r3, #1
 8000c90:	6213      	str	r3, [r2, #32]
 8000c92:	4b67      	ldr	r3, [pc, #412]	; (8000e30 <HAL_RCC_OscConfig+0x4c4>)
 8000c94:	6a1b      	ldr	r3, [r3, #32]
 8000c96:	4a66      	ldr	r2, [pc, #408]	; (8000e30 <HAL_RCC_OscConfig+0x4c4>)
 8000c98:	f023 0304 	bic.w	r3, r3, #4
 8000c9c:	6213      	str	r3, [r2, #32]
 8000c9e:	e01c      	b.n	8000cda <HAL_RCC_OscConfig+0x36e>
 8000ca0:	687b      	ldr	r3, [r7, #4]
 8000ca2:	68db      	ldr	r3, [r3, #12]
 8000ca4:	2b05      	cmp	r3, #5
 8000ca6:	d10c      	bne.n	8000cc2 <HAL_RCC_OscConfig+0x356>
 8000ca8:	4b61      	ldr	r3, [pc, #388]	; (8000e30 <HAL_RCC_OscConfig+0x4c4>)
 8000caa:	6a1b      	ldr	r3, [r3, #32]
 8000cac:	4a60      	ldr	r2, [pc, #384]	; (8000e30 <HAL_RCC_OscConfig+0x4c4>)
 8000cae:	f043 0304 	orr.w	r3, r3, #4
 8000cb2:	6213      	str	r3, [r2, #32]
 8000cb4:	4b5e      	ldr	r3, [pc, #376]	; (8000e30 <HAL_RCC_OscConfig+0x4c4>)
 8000cb6:	6a1b      	ldr	r3, [r3, #32]
 8000cb8:	4a5d      	ldr	r2, [pc, #372]	; (8000e30 <HAL_RCC_OscConfig+0x4c4>)
 8000cba:	f043 0301 	orr.w	r3, r3, #1
 8000cbe:	6213      	str	r3, [r2, #32]
 8000cc0:	e00b      	b.n	8000cda <HAL_RCC_OscConfig+0x36e>
 8000cc2:	4b5b      	ldr	r3, [pc, #364]	; (8000e30 <HAL_RCC_OscConfig+0x4c4>)
 8000cc4:	6a1b      	ldr	r3, [r3, #32]
 8000cc6:	4a5a      	ldr	r2, [pc, #360]	; (8000e30 <HAL_RCC_OscConfig+0x4c4>)
 8000cc8:	f023 0301 	bic.w	r3, r3, #1
 8000ccc:	6213      	str	r3, [r2, #32]
 8000cce:	4b58      	ldr	r3, [pc, #352]	; (8000e30 <HAL_RCC_OscConfig+0x4c4>)
 8000cd0:	6a1b      	ldr	r3, [r3, #32]
 8000cd2:	4a57      	ldr	r2, [pc, #348]	; (8000e30 <HAL_RCC_OscConfig+0x4c4>)
 8000cd4:	f023 0304 	bic.w	r3, r3, #4
 8000cd8:	6213      	str	r3, [r2, #32]
    /* Check the LSE State */
    if (RCC_OscInitStruct->LSEState != RCC_LSE_OFF)
 8000cda:	687b      	ldr	r3, [r7, #4]
 8000cdc:	68db      	ldr	r3, [r3, #12]
 8000cde:	2b00      	cmp	r3, #0
 8000ce0:	d015      	beq.n	8000d0e <HAL_RCC_OscConfig+0x3a2>
    {
      /* Get Start Tick */
      tickstart = HAL_GetTick();
 8000ce2:	f7ff fb9d 	bl	8000420 <HAL_GetTick>
 8000ce6:	6138      	str	r0, [r7, #16]

      /* Wait till LSE is ready */
      while (__HAL_RCC_GET_FLAG(RCC_FLAG_LSERDY) == RESET)
 8000ce8:	e00a      	b.n	8000d00 <HAL_RCC_OscConfig+0x394>
      {
        if ((HAL_GetTick() - tickstart) > RCC_LSE_TIMEOUT_VALUE)
 8000cea:	f7ff fb99 	bl	8000420 <HAL_GetTick>
 8000cee:	4602      	mov	r2, r0
 8000cf0:	693b      	ldr	r3, [r7, #16]
 8000cf2:	1ad3      	subs	r3, r2, r3
 8000cf4:	f241 3288 	movw	r2, #5000	; 0x1388
 8000cf8:	4293      	cmp	r3, r2
 8000cfa:	d901      	bls.n	8000d00 <HAL_RCC_OscConfig+0x394>
        {
          return HAL_TIMEOUT;
 8000cfc:	2303      	movs	r3, #3
 8000cfe:	e0b1      	b.n	8000e64 <HAL_RCC_OscConfig+0x4f8>
      while (__HAL_RCC_GET_FLAG(RCC_FLAG_LSERDY) == RESET)
 8000d00:	4b4b      	ldr	r3, [pc, #300]	; (8000e30 <HAL_RCC_OscConfig+0x4c4>)
 8000d02:	6a1b      	ldr	r3, [r3, #32]
 8000d04:	f003 0302 	and.w	r3, r3, #2
 8000d08:	2b00      	cmp	r3, #0
 8000d0a:	d0ee      	beq.n	8000cea <HAL_RCC_OscConfig+0x37e>
 8000d0c:	e014      	b.n	8000d38 <HAL_RCC_OscConfig+0x3cc>
      }
    }
    else
    {
      /* Get Start Tick */
      tickstart = HAL_GetTick();
 8000d0e:	f7ff fb87 	bl	8000420 <HAL_GetTick>
 8000d12:	6138      	str	r0, [r7, #16]

      /* Wait till LSE is disabled */
      while (__HAL_RCC_GET_FLAG(RCC_FLAG_LSERDY) != RESET)
 8000d14:	e00a      	b.n	8000d2c <HAL_RCC_OscConfig+0x3c0>
      {
        if ((HAL_GetTick() - tickstart) > RCC_LSE_TIMEOUT_VALUE)
 8000d16:	f7ff fb83 	bl	8000420 <HAL_GetTick>
 8000d1a:	4602      	mov	r2, r0
 8000d1c:	693b      	ldr	r3, [r7, #16]
 8000d1e:	1ad3      	subs	r3, r2, r3
 8000d20:	f241 3288 	movw	r2, #5000	; 0x1388
 8000d24:	4293      	cmp	r3, r2
 8000d26:	d901      	bls.n	8000d2c <HAL_RCC_OscConfig+0x3c0>
        {
          return HAL_TIMEOUT;
 8000d28:	2303      	movs	r3, #3
 8000d2a:	e09b      	b.n	8000e64 <HAL_RCC_OscConfig+0x4f8>
      while (__HAL_RCC_GET_FLAG(RCC_FLAG_LSERDY) != RESET)
 8000d2c:	4b40      	ldr	r3, [pc, #256]	; (8000e30 <HAL_RCC_OscConfig+0x4c4>)
 8000d2e:	6a1b      	ldr	r3, [r3, #32]
 8000d30:	f003 0302 	and.w	r3, r3, #2
 8000d34:	2b00      	cmp	r3, #0
 8000d36:	d1ee      	bne.n	8000d16 <HAL_RCC_OscConfig+0x3aa>
        }
      }
    }

    /* Require to disable power clock if necessary */
    if (pwrclkchanged == SET)
 8000d38:	7dfb      	ldrb	r3, [r7, #23]
 8000d3a:	2b01      	cmp	r3, #1
 8000d3c:	d105      	bne.n	8000d4a <HAL_RCC_OscConfig+0x3de>
    {
      __HAL_RCC_PWR_CLK_DISABLE();
 8000d3e:	4b3c      	ldr	r3, [pc, #240]	; (8000e30 <HAL_RCC_OscConfig+0x4c4>)
 8000d40:	69db      	ldr	r3, [r3, #28]
 8000d42:	4a3b      	ldr	r2, [pc, #236]	; (8000e30 <HAL_RCC_OscConfig+0x4c4>)
 8000d44:	f023 5380 	bic.w	r3, r3, #268435456	; 0x10000000
 8000d48:	61d3      	str	r3, [r2, #28]

#endif /* RCC_CR_PLL2ON */
  /*-------------------------------- PLL Configuration -----------------------*/
  /* Check the parameters */
  assert_param(IS_RCC_PLL(RCC_OscInitStruct->PLL.PLLState));
  if ((RCC_OscInitStruct->PLL.PLLState) != RCC_PLL_NONE)
 8000d4a:	687b      	ldr	r3, [r7, #4]
 8000d4c:	69db      	ldr	r3, [r3, #28]
 8000d4e:	2b00      	cmp	r3, #0
 8000d50:	f000 8087 	beq.w	8000e62 <HAL_RCC_OscConfig+0x4f6>
  {
    /* Check if the PLL is used as system clock or not */
    if (__HAL_RCC_GET_SYSCLK_SOURCE() != RCC_SYSCLKSOURCE_STATUS_PLLCLK)
 8000d54:	4b36      	ldr	r3, [pc, #216]	; (8000e30 <HAL_RCC_OscConfig+0x4c4>)
 8000d56:	685b      	ldr	r3, [r3, #4]
 8000d58:	f003 030c 	and.w	r3, r3, #12
 8000d5c:	2b08      	cmp	r3, #8
 8000d5e:	d061      	beq.n	8000e24 <HAL_RCC_OscConfig+0x4b8>
    {
      if ((RCC_OscInitStruct->PLL.PLLState) == RCC_PLL_ON)
 8000d60:	687b      	ldr	r3, [r7, #4]
 8000d62:	69db      	ldr	r3, [r3, #28]
 8000d64:	2b02      	cmp	r3, #2
 8000d66:	d146      	bne.n	8000df6 <HAL_RCC_OscConfig+0x48a>
        /* Check the parameters */
        assert_param(IS_RCC_PLLSOURCE(RCC_OscInitStruct->PLL.PLLSource));
        assert_param(IS_RCC_PLL_MUL(RCC_OscInitStruct->PLL.PLLMUL));

        /* Disable the main PLL. */
        __HAL_RCC_PLL_DISABLE();
 8000d68:	4b33      	ldr	r3, [pc, #204]	; (8000e38 <HAL_RCC_OscConfig+0x4cc>)
 8000d6a:	2200      	movs	r2, #0
 8000d6c:	601a      	str	r2, [r3, #0]

        /* Get Start Tick */
        tickstart = HAL_GetTick();
 8000d6e:	f7ff fb57 	bl	8000420 <HAL_GetTick>
 8000d72:	6138      	str	r0, [r7, #16]

        /* Wait till PLL is disabled */
        while (__HAL_RCC_GET_FLAG(RCC_FLAG_PLLRDY)  != RESET)
 8000d74:	e008      	b.n	8000d88 <HAL_RCC_OscConfig+0x41c>
        {
          if ((HAL_GetTick() - tickstart) > PLL_TIMEOUT_VALUE)
 8000d76:	f7ff fb53 	bl	8000420 <HAL_GetTick>
 8000d7a:	4602      	mov	r2, r0
 8000d7c:	693b      	ldr	r3, [r7, #16]
 8000d7e:	1ad3      	subs	r3, r2, r3
 8000d80:	2b02      	cmp	r3, #2
 8000d82:	d901      	bls.n	8000d88 <HAL_RCC_OscConfig+0x41c>
          {
            return HAL_TIMEOUT;
 8000d84:	2303      	movs	r3, #3
 8000d86:	e06d      	b.n	8000e64 <HAL_RCC_OscConfig+0x4f8>
        while (__HAL_RCC_GET_FLAG(RCC_FLAG_PLLRDY)  != RESET)
 8000d88:	4b29      	ldr	r3, [pc, #164]	; (8000e30 <HAL_RCC_OscConfig+0x4c4>)
 8000d8a:	681b      	ldr	r3, [r3, #0]
 8000d8c:	f003 7300 	and.w	r3, r3, #33554432	; 0x2000000
 8000d90:	2b00      	cmp	r3, #0
 8000d92:	d1f0      	bne.n	8000d76 <HAL_RCC_OscConfig+0x40a>
          }
        }

        /* Configure the HSE prediv factor --------------------------------*/
        /* It can be written only when the PLL is disabled. Not used in PLL source is different than HSE */
        if (RCC_OscInitStruct->PLL.PLLSource == RCC_PLLSOURCE_HSE)
 8000d94:	687b      	ldr	r3, [r7, #4]
 8000d96:	6a1b      	ldr	r3, [r3, #32]
 8000d98:	f5b3 3f80 	cmp.w	r3, #65536	; 0x10000
 8000d9c:	d108      	bne.n	8000db0 <HAL_RCC_OscConfig+0x444>
          /* Set PREDIV1 source */
          SET_BIT(RCC->CFGR2, RCC_OscInitStruct->Prediv1Source);
#endif /* RCC_CFGR2_PREDIV1SRC */

          /* Set PREDIV1 Value */
          __HAL_RCC_HSE_PREDIV_CONFIG(RCC_OscInitStruct->HSEPredivValue);
 8000d9e:	4b24      	ldr	r3, [pc, #144]	; (8000e30 <HAL_RCC_OscConfig+0x4c4>)
 8000da0:	685b      	ldr	r3, [r3, #4]
 8000da2:	f423 3200 	bic.w	r2, r3, #131072	; 0x20000
 8000da6:	687b      	ldr	r3, [r7, #4]
 8000da8:	689b      	ldr	r3, [r3, #8]
 8000daa:	4921      	ldr	r1, [pc, #132]	; (8000e30 <HAL_RCC_OscConfig+0x4c4>)
 8000dac:	4313      	orrs	r3, r2
 8000dae:	604b      	str	r3, [r1, #4]
        }

        /* Configure the main PLL clock source and multiplication factors. */
        __HAL_RCC_PLL_CONFIG(RCC_OscInitStruct->PLL.PLLSource,
 8000db0:	4b1f      	ldr	r3, [pc, #124]	; (8000e30 <HAL_RCC_OscConfig+0x4c4>)
 8000db2:	685b      	ldr	r3, [r3, #4]
 8000db4:	f423 1274 	bic.w	r2, r3, #3997696	; 0x3d0000
 8000db8:	687b      	ldr	r3, [r7, #4]
 8000dba:	6a19      	ldr	r1, [r3, #32]
 8000dbc:	687b      	ldr	r3, [r7, #4]
 8000dbe:	6a5b      	ldr	r3, [r3, #36]	; 0x24
 8000dc0:	430b      	orrs	r3, r1
 8000dc2:	491b      	ldr	r1, [pc, #108]	; (8000e30 <HAL_RCC_OscConfig+0x4c4>)
 8000dc4:	4313      	orrs	r3, r2
 8000dc6:	604b      	str	r3, [r1, #4]
                             RCC_OscInitStruct->PLL.PLLMUL);
        /* Enable the main PLL. */
        __HAL_RCC_PLL_ENABLE();
 8000dc8:	4b1b      	ldr	r3, [pc, #108]	; (8000e38 <HAL_RCC_OscConfig+0x4cc>)
 8000dca:	2201      	movs	r2, #1
 8000dcc:	601a      	str	r2, [r3, #0]

        /* Get Start Tick */
        tickstart = HAL_GetTick();
 8000dce:	f7ff fb27 	bl	8000420 <HAL_GetTick>
 8000dd2:	6138      	str	r0, [r7, #16]

        /* Wait till PLL is ready */
        while (__HAL_RCC_GET_FLAG(RCC_FLAG_PLLRDY)  == RESET)
 8000dd4:	e008      	b.n	8000de8 <HAL_RCC_OscConfig+0x47c>
        {
          if ((HAL_GetTick() - tickstart) > PLL_TIMEOUT_VALUE)
 8000dd6:	f7ff fb23 	bl	8000420 <HAL_GetTick>
 8000dda:	4602      	mov	r2, r0
 8000ddc:	693b      	ldr	r3, [r7, #16]
 8000dde:	1ad3      	subs	r3, r2, r3
 8000de0:	2b02      	cmp	r3, #2
 8000de2:	d901      	bls.n	8000de8 <HAL_RCC_OscConfig+0x47c>
          {
            return HAL_TIMEOUT;
 8000de4:	2303      	movs	r3, #3
 8000de6:	e03d      	b.n	8000e64 <HAL_RCC_OscConfig+0x4f8>
        while (__HAL_RCC_GET_FLAG(RCC_FLAG_PLLRDY)  == RESET)
 8000de8:	4b11      	ldr	r3, [pc, #68]	; (8000e30 <HAL_RCC_OscConfig+0x4c4>)
 8000dea:	681b      	ldr	r3, [r3, #0]
 8000dec:	f003 7300 	and.w	r3, r3, #33554432	; 0x2000000
 8000df0:	2b00      	cmp	r3, #0
 8000df2:	d0f0      	beq.n	8000dd6 <HAL_RCC_OscConfig+0x46a>
 8000df4:	e035      	b.n	8000e62 <HAL_RCC_OscConfig+0x4f6>
        }
      }
      else
      {
        /* Disable the main PLL. */
        __HAL_RCC_PLL_DISABLE();
 8000df6:	4b10      	ldr	r3, [pc, #64]	; (8000e38 <HAL_RCC_OscConfig+0x4cc>)
 8000df8:	2200      	movs	r2, #0
 8000dfa:	601a      	str	r2, [r3, #0]

        /* Get Start Tick */
        tickstart = HAL_GetTick();
 8000dfc:	f7ff fb10 	bl	8000420 <HAL_GetTick>
 8000e00:	6138      	str	r0, [r7, #16]

        /* Wait till PLL is disabled */
        while (__HAL_RCC_GET_FLAG(RCC_FLAG_PLLRDY)  != RESET)
 8000e02:	e008      	b.n	8000e16 <HAL_RCC_OscConfig+0x4aa>
        {
          if ((HAL_GetTick() - tickstart) > PLL_TIMEOUT_VALUE)
 8000e04:	f7ff fb0c 	bl	8000420 <HAL_GetTick>
 8000e08:	4602      	mov	r2, r0
 8000e0a:	693b      	ldr	r3, [r7, #16]
 8000e0c:	1ad3      	subs	r3, r2, r3
 8000e0e:	2b02      	cmp	r3, #2
 8000e10:	d901      	bls.n	8000e16 <HAL_RCC_OscConfig+0x4aa>
          {
            return HAL_TIMEOUT;
 8000e12:	2303      	movs	r3, #3
 8000e14:	e026      	b.n	8000e64 <HAL_RCC_OscConfig+0x4f8>
        while (__HAL_RCC_GET_FLAG(RCC_FLAG_PLLRDY)  != RESET)
 8000e16:	4b06      	ldr	r3, [pc, #24]	; (8000e30 <HAL_RCC_OscConfig+0x4c4>)
 8000e18:	681b      	ldr	r3, [r3, #0]
 8000e1a:	f003 7300 	and.w	r3, r3, #33554432	; 0x2000000
 8000e1e:	2b00      	cmp	r3, #0
 8000e20:	d1f0      	bne.n	8000e04 <HAL_RCC_OscConfig+0x498>
 8000e22:	e01e      	b.n	8000e62 <HAL_RCC_OscConfig+0x4f6>
      }
    }
    else
    {
      /* Check if there is a request to disable the PLL used as System clock source */
      if ((RCC_OscInitStruct->PLL.PLLState) == RCC_PLL_OFF)
 8000e24:	687b      	ldr	r3, [r7, #4]
 8000e26:	69db      	ldr	r3, [r3, #28]
 8000e28:	2b01      	cmp	r3, #1
 8000e2a:	d107      	bne.n	8000e3c <HAL_RCC_OscConfig+0x4d0>
      {
        return HAL_ERROR;
 8000e2c:	2301      	movs	r3, #1
 8000e2e:	e019      	b.n	8000e64 <HAL_RCC_OscConfig+0x4f8>
 8000e30:	40021000 	.word	0x40021000
 8000e34:	40007000 	.word	0x40007000
 8000e38:	42420060 	.word	0x42420060
      }
      else
      {
        /* Do not return HAL_ERROR if request repeats the current configuration */
        pll_config = RCC->CFGR;
 8000e3c:	4b0b      	ldr	r3, [pc, #44]	; (8000e6c <HAL_RCC_OscConfig+0x500>)
 8000e3e:	685b      	ldr	r3, [r3, #4]
 8000e40:	60fb      	str	r3, [r7, #12]
        if ((READ_BIT(pll_config, RCC_CFGR_PLLSRC) != RCC_OscInitStruct->PLL.PLLSource) ||
 8000e42:	68fb      	ldr	r3, [r7, #12]
 8000e44:	f403 3280 	and.w	r2, r3, #65536	; 0x10000
 8000e48:	687b      	ldr	r3, [r7, #4]
 8000e4a:	6a1b      	ldr	r3, [r3, #32]
 8000e4c:	429a      	cmp	r2, r3
 8000e4e:	d106      	bne.n	8000e5e <HAL_RCC_OscConfig+0x4f2>
            (READ_BIT(pll_config, RCC_CFGR_PLLMULL) != RCC_OscInitStruct->PLL.PLLMUL))
 8000e50:	68fb      	ldr	r3, [r7, #12]
 8000e52:	f403 1270 	and.w	r2, r3, #3932160	; 0x3c0000
 8000e56:	687b      	ldr	r3, [r7, #4]
 8000e58:	6a5b      	ldr	r3, [r3, #36]	; 0x24
        if ((READ_BIT(pll_config, RCC_CFGR_PLLSRC) != RCC_OscInitStruct->PLL.PLLSource) ||
 8000e5a:	429a      	cmp	r2, r3
 8000e5c:	d001      	beq.n	8000e62 <HAL_RCC_OscConfig+0x4f6>
        {
          return HAL_ERROR;
 8000e5e:	2301      	movs	r3, #1
 8000e60:	e000      	b.n	8000e64 <HAL_RCC_OscConfig+0x4f8>
        }
      }
    }
  }

  return HAL_OK;
 8000e62:	2300      	movs	r3, #0
}
 8000e64:	4618      	mov	r0, r3
 8000e66:	3718      	adds	r7, #24
 8000e68:	46bd      	mov	sp, r7
 8000e6a:	bd80      	pop	{r7, pc}
 8000e6c:	40021000 	.word	0x40021000

08000e70 <HAL_RCC_ClockConfig>:
  *         You can use @ref HAL_RCC_GetClockConfig() function to know which clock is
  *         currently used as system clock source.
  * @retval HAL status
  */
HAL_StatusTypeDef HAL_RCC_ClockConfig(RCC_ClkInitTypeDef  *RCC_ClkInitStruct, uint32_t FLatency)
{
 8000e70:	b580      	push	{r7, lr}
 8000e72:	b084      	sub	sp, #16
 8000e74:	af00      	add	r7, sp, #0
 8000e76:	6078      	str	r0, [r7, #4]
 8000e78:	6039      	str	r1, [r7, #0]
  uint32_t tickstart;

  /* Check Null pointer */
  if (RCC_ClkInitStruct == NULL)
 8000e7a:	687b      	ldr	r3, [r7, #4]
 8000e7c:	2b00      	cmp	r3, #0
 8000e7e:	d101      	bne.n	8000e84 <HAL_RCC_ClockConfig+0x14>
  {
    return HAL_ERROR;
 8000e80:	2301      	movs	r3, #1
 8000e82:	e0d0      	b.n	8001026 <HAL_RCC_ClockConfig+0x1b6>
  must be correctly programmed according to the frequency of the CPU clock
    (HCLK) of the device. */

#if defined(FLASH_ACR_LATENCY)
  /* Increasing the number of wait states because of higher CPU frequency */
  if (FLatency > __HAL_FLASH_GET_LATENCY())
 8000e84:	4b6a      	ldr	r3, [pc, #424]	; (8001030 <HAL_RCC_ClockConfig+0x1c0>)
 8000e86:	681b      	ldr	r3, [r3, #0]
 8000e88:	f003 0307 	and.w	r3, r3, #7
 8000e8c:	683a      	ldr	r2, [r7, #0]
 8000e8e:	429a      	cmp	r2, r3
 8000e90:	d910      	bls.n	8000eb4 <HAL_RCC_ClockConfig+0x44>
  {
    /* Program the new number of wait states to the LATENCY bits in the FLASH_ACR register */
    __HAL_FLASH_SET_LATENCY(FLatency);
 8000e92:	4b67      	ldr	r3, [pc, #412]	; (8001030 <HAL_RCC_ClockConfig+0x1c0>)
 8000e94:	681b      	ldr	r3, [r3, #0]
 8000e96:	f023 0207 	bic.w	r2, r3, #7
 8000e9a:	4965      	ldr	r1, [pc, #404]	; (8001030 <HAL_RCC_ClockConfig+0x1c0>)
 8000e9c:	683b      	ldr	r3, [r7, #0]
 8000e9e:	4313      	orrs	r3, r2
 8000ea0:	600b      	str	r3, [r1, #0]

    /* Check that the new number of wait states is taken into account to access the Flash
    memory by reading the FLASH_ACR register */
    if (__HAL_FLASH_GET_LATENCY() != FLatency)
 8000ea2:	4b63      	ldr	r3, [pc, #396]	; (8001030 <HAL_RCC_ClockConfig+0x1c0>)
 8000ea4:	681b      	ldr	r3, [r3, #0]
 8000ea6:	f003 0307 	and.w	r3, r3, #7
 8000eaa:	683a      	ldr	r2, [r7, #0]
 8000eac:	429a      	cmp	r2, r3
 8000eae:	d001      	beq.n	8000eb4 <HAL_RCC_ClockConfig+0x44>
  {
    return HAL_ERROR;
 8000eb0:	2301      	movs	r3, #1
 8000eb2:	e0b8      	b.n	8001026 <HAL_RCC_ClockConfig+0x1b6>
  }
}

#endif /* FLASH_ACR_LATENCY */
/*-------------------------- HCLK Configuration --------------------------*/
if (((RCC_ClkInitStruct->ClockType) & RCC_CLOCKTYPE_HCLK) == RCC_CLOCKTYPE_HCLK)
 8000eb4:	687b      	ldr	r3, [r7, #4]
 8000eb6:	681b      	ldr	r3, [r3, #0]
 8000eb8:	f003 0302 	and.w	r3, r3, #2
 8000ebc:	2b00      	cmp	r3, #0
 8000ebe:	d020      	beq.n	8000f02 <HAL_RCC_ClockConfig+0x92>
  {
    /* Set the highest APBx dividers in order to ensure that we do not go through
    a non-spec phase whatever we decrease or increase HCLK. */
    if (((RCC_ClkInitStruct->ClockType) & RCC_CLOCKTYPE_PCLK1) == RCC_CLOCKTYPE_PCLK1)
 8000ec0:	687b      	ldr	r3, [r7, #4]
 8000ec2:	681b      	ldr	r3, [r3, #0]
 8000ec4:	f003 0304 	and.w	r3, r3, #4
 8000ec8:	2b00      	cmp	r3, #0
 8000eca:	d005      	beq.n	8000ed8 <HAL_RCC_ClockConfig+0x68>
    {
      MODIFY_REG(RCC->CFGR, RCC_CFGR_PPRE1, RCC_HCLK_DIV16);
 8000ecc:	4b59      	ldr	r3, [pc, #356]	; (8001034 <HAL_RCC_ClockConfig+0x1c4>)
 8000ece:	685b      	ldr	r3, [r3, #4]
 8000ed0:	4a58      	ldr	r2, [pc, #352]	; (8001034 <HAL_RCC_ClockConfig+0x1c4>)
 8000ed2:	f443 63e0 	orr.w	r3, r3, #1792	; 0x700
 8000ed6:	6053      	str	r3, [r2, #4]
    }

    if (((RCC_ClkInitStruct->ClockType) & RCC_CLOCKTYPE_PCLK2) == RCC_CLOCKTYPE_PCLK2)
 8000ed8:	687b      	ldr	r3, [r7, #4]
 8000eda:	681b      	ldr	r3, [r3, #0]
 8000edc:	f003 0308 	and.w	r3, r3, #8
 8000ee0:	2b00      	cmp	r3, #0
 8000ee2:	d005      	beq.n	8000ef0 <HAL_RCC_ClockConfig+0x80>
    {
      MODIFY_REG(RCC->CFGR, RCC_CFGR_PPRE2, (RCC_HCLK_DIV16 << 3));
 8000ee4:	4b53      	ldr	r3, [pc, #332]	; (8001034 <HAL_RCC_ClockConfig+0x1c4>)
 8000ee6:	685b      	ldr	r3, [r3, #4]
 8000ee8:	4a52      	ldr	r2, [pc, #328]	; (8001034 <HAL_RCC_ClockConfig+0x1c4>)
 8000eea:	f443 5360 	orr.w	r3, r3, #14336	; 0x3800
 8000eee:	6053      	str	r3, [r2, #4]
    }

    /* Set the new HCLK clock divider */
    assert_param(IS_RCC_HCLK(RCC_ClkInitStruct->AHBCLKDivider));
    MODIFY_REG(RCC->CFGR, RCC_CFGR_HPRE, RCC_ClkInitStruct->AHBCLKDivider);
 8000ef0:	4b50      	ldr	r3, [pc, #320]	; (8001034 <HAL_RCC_ClockConfig+0x1c4>)
 8000ef2:	685b      	ldr	r3, [r3, #4]
 8000ef4:	f023 02f0 	bic.w	r2, r3, #240	; 0xf0
 8000ef8:	687b      	ldr	r3, [r7, #4]
 8000efa:	689b      	ldr	r3, [r3, #8]
 8000efc:	494d      	ldr	r1, [pc, #308]	; (8001034 <HAL_RCC_ClockConfig+0x1c4>)
 8000efe:	4313      	orrs	r3, r2
 8000f00:	604b      	str	r3, [r1, #4]
  }

  /*------------------------- SYSCLK Configuration ---------------------------*/
  if (((RCC_ClkInitStruct->ClockType) & RCC_CLOCKTYPE_SYSCLK) == RCC_CLOCKTYPE_SYSCLK)
 8000f02:	687b      	ldr	r3, [r7, #4]
 8000f04:	681b      	ldr	r3, [r3, #0]
 8000f06:	f003 0301 	and.w	r3, r3, #1
 8000f0a:	2b00      	cmp	r3, #0
 8000f0c:	d040      	beq.n	8000f90 <HAL_RCC_ClockConfig+0x120>
  {
    assert_param(IS_RCC_SYSCLKSOURCE(RCC_ClkInitStruct->SYSCLKSource));

    /* HSE is selected as System Clock Source */
    if (RCC_ClkInitStruct->SYSCLKSource == RCC_SYSCLKSOURCE_HSE)
 8000f0e:	687b      	ldr	r3, [r7, #4]
 8000f10:	685b      	ldr	r3, [r3, #4]
 8000f12:	2b01      	cmp	r3, #1
 8000f14:	d107      	bne.n	8000f26 <HAL_RCC_ClockConfig+0xb6>
    {
      /* Check the HSE ready flag */
      if (__HAL_RCC_GET_FLAG(RCC_FLAG_HSERDY) == RESET)
 8000f16:	4b47      	ldr	r3, [pc, #284]	; (8001034 <HAL_RCC_ClockConfig+0x1c4>)
 8000f18:	681b      	ldr	r3, [r3, #0]
 8000f1a:	f403 3300 	and.w	r3, r3, #131072	; 0x20000
 8000f1e:	2b00      	cmp	r3, #0
 8000f20:	d115      	bne.n	8000f4e <HAL_RCC_ClockConfig+0xde>
      {
        return HAL_ERROR;
 8000f22:	2301      	movs	r3, #1
 8000f24:	e07f      	b.n	8001026 <HAL_RCC_ClockConfig+0x1b6>
      }
    }
    /* PLL is selected as System Clock Source */
    else if (RCC_ClkInitStruct->SYSCLKSource == RCC_SYSCLKSOURCE_PLLCLK)
 8000f26:	687b      	ldr	r3, [r7, #4]
 8000f28:	685b      	ldr	r3, [r3, #4]
 8000f2a:	2b02      	cmp	r3, #2
 8000f2c:	d107      	bne.n	8000f3e <HAL_RCC_ClockConfig+0xce>
    {
      /* Check the PLL ready flag */
      if (__HAL_RCC_GET_FLAG(RCC_FLAG_PLLRDY) == RESET)
 8000f2e:	4b41      	ldr	r3, [pc, #260]	; (8001034 <HAL_RCC_ClockConfig+0x1c4>)
 8000f30:	681b      	ldr	r3, [r3, #0]
 8000f32:	f003 7300 	and.w	r3, r3, #33554432	; 0x2000000
 8000f36:	2b00      	cmp	r3, #0
 8000f38:	d109      	bne.n	8000f4e <HAL_RCC_ClockConfig+0xde>
      {
        return HAL_ERROR;
 8000f3a:	2301      	movs	r3, #1
 8000f3c:	e073      	b.n	8001026 <HAL_RCC_ClockConfig+0x1b6>
    }
    /* HSI is selected as System Clock Source */
    else
    {
      /* Check the HSI ready flag */
      if (__HAL_RCC_GET_FLAG(RCC_FLAG_HSIRDY) == RESET)
 8000f3e:	4b3d      	ldr	r3, [pc, #244]	; (8001034 <HAL_RCC_ClockConfig+0x1c4>)
 8000f40:	681b      	ldr	r3, [r3, #0]
 8000f42:	f003 0302 	and.w	r3, r3, #2
 8000f46:	2b00      	cmp	r3, #0
 8000f48:	d101      	bne.n	8000f4e <HAL_RCC_ClockConfig+0xde>
      {
        return HAL_ERROR;
 8000f4a:	2301      	movs	r3, #1
 8000f4c:	e06b      	b.n	8001026 <HAL_RCC_ClockConfig+0x1b6>
      }
    }
    __HAL_RCC_SYSCLK_CONFIG(RCC_ClkInitStruct->SYSCLKSource);
 8000f4e:	4b39      	ldr	r3, [pc, #228]	; (8001034 <HAL_RCC_ClockConfig+0x1c4>)
 8000f50:	685b      	ldr	r3, [r3, #4]
 8000f52:	f023 0203 	bic.w	r2, r3, #3
 8000f56:	687b      	ldr	r3, [r7, #4]
 8000f58:	685b      	ldr	r3, [r3, #4]
 8000f5a:	4936      	ldr	r1, [pc, #216]	; (8001034 <HAL_RCC_ClockConfig+0x1c4>)
 8000f5c:	4313      	orrs	r3, r2
 8000f5e:	604b      	str	r3, [r1, #4]

    /* Get Start Tick */
    tickstart = HAL_GetTick();
 8000f60:	f7ff fa5e 	bl	8000420 <HAL_GetTick>
 8000f64:	60f8      	str	r0, [r7, #12]

    while (__HAL_RCC_GET_SYSCLK_SOURCE() != (RCC_ClkInitStruct->SYSCLKSource << RCC_CFGR_SWS_Pos))
 8000f66:	e00a      	b.n	8000f7e <HAL_RCC_ClockConfig+0x10e>
    {
      if ((HAL_GetTick() - tickstart) > CLOCKSWITCH_TIMEOUT_VALUE)
 8000f68:	f7ff fa5a 	bl	8000420 <HAL_GetTick>
 8000f6c:	4602      	mov	r2, r0
 8000f6e:	68fb      	ldr	r3, [r7, #12]
 8000f70:	1ad3      	subs	r3, r2, r3
 8000f72:	f241 3288 	movw	r2, #5000	; 0x1388
 8000f76:	4293      	cmp	r3, r2
 8000f78:	d901      	bls.n	8000f7e <HAL_RCC_ClockConfig+0x10e>
      {
        return HAL_TIMEOUT;
 8000f7a:	2303      	movs	r3, #3
 8000f7c:	e053      	b.n	8001026 <HAL_RCC_ClockConfig+0x1b6>
    while (__HAL_RCC_GET_SYSCLK_SOURCE() != (RCC_ClkInitStruct->SYSCLKSource << RCC_CFGR_SWS_Pos))
 8000f7e:	4b2d      	ldr	r3, [pc, #180]	; (8001034 <HAL_RCC_ClockConfig+0x1c4>)
 8000f80:	685b      	ldr	r3, [r3, #4]
 8000f82:	f003 020c 	and.w	r2, r3, #12
 8000f86:	687b      	ldr	r3, [r7, #4]
 8000f88:	685b      	ldr	r3, [r3, #4]
 8000f8a:	009b      	lsls	r3, r3, #2
 8000f8c:	429a      	cmp	r2, r3
 8000f8e:	d1eb      	bne.n	8000f68 <HAL_RCC_ClockConfig+0xf8>
    }
  }

#if defined(FLASH_ACR_LATENCY)
  /* Decreasing the number of wait states because of lower CPU frequency */
  if (FLatency < __HAL_FLASH_GET_LATENCY())
 8000f90:	4b27      	ldr	r3, [pc, #156]	; (8001030 <HAL_RCC_ClockConfig+0x1c0>)
 8000f92:	681b      	ldr	r3, [r3, #0]
 8000f94:	f003 0307 	and.w	r3, r3, #7
 8000f98:	683a      	ldr	r2, [r7, #0]
 8000f9a:	429a      	cmp	r2, r3
 8000f9c:	d210      	bcs.n	8000fc0 <HAL_RCC_ClockConfig+0x150>
  {
    /* Program the new number of wait states to the LATENCY bits in the FLASH_ACR register */
    __HAL_FLASH_SET_LATENCY(FLatency);
 8000f9e:	4b24      	ldr	r3, [pc, #144]	; (8001030 <HAL_RCC_ClockConfig+0x1c0>)
 8000fa0:	681b      	ldr	r3, [r3, #0]
 8000fa2:	f023 0207 	bic.w	r2, r3, #7
 8000fa6:	4922      	ldr	r1, [pc, #136]	; (8001030 <HAL_RCC_ClockConfig+0x1c0>)
 8000fa8:	683b      	ldr	r3, [r7, #0]
 8000faa:	4313      	orrs	r3, r2
 8000fac:	600b      	str	r3, [r1, #0]

    /* Check that the new number of wait states is taken into account to access the Flash
    memory by reading the FLASH_ACR register */
    if (__HAL_FLASH_GET_LATENCY() != FLatency)
 8000fae:	4b20      	ldr	r3, [pc, #128]	; (8001030 <HAL_RCC_ClockConfig+0x1c0>)
 8000fb0:	681b      	ldr	r3, [r3, #0]
 8000fb2:	f003 0307 	and.w	r3, r3, #7
 8000fb6:	683a      	ldr	r2, [r7, #0]
 8000fb8:	429a      	cmp	r2, r3
 8000fba:	d001      	beq.n	8000fc0 <HAL_RCC_ClockConfig+0x150>
  {
    return HAL_ERROR;
 8000fbc:	2301      	movs	r3, #1
 8000fbe:	e032      	b.n	8001026 <HAL_RCC_ClockConfig+0x1b6>
  }
}
#endif /* FLASH_ACR_LATENCY */

/*-------------------------- PCLK1 Configuration ---------------------------*/
if (((RCC_ClkInitStruct->ClockType) & RCC_CLOCKTYPE_PCLK1) == RCC_CLOCKTYPE_PCLK1)
 8000fc0:	687b      	ldr	r3, [r7, #4]
 8000fc2:	681b      	ldr	r3, [r3, #0]
 8000fc4:	f003 0304 	and.w	r3, r3, #4
 8000fc8:	2b00      	cmp	r3, #0
 8000fca:	d008      	beq.n	8000fde <HAL_RCC_ClockConfig+0x16e>
  {
    assert_param(IS_RCC_PCLK(RCC_ClkInitStruct->APB1CLKDivider));
    MODIFY_REG(RCC->CFGR, RCC_CFGR_PPRE1, RCC_ClkInitStruct->APB1CLKDivider);
 8000fcc:	4b19      	ldr	r3, [pc, #100]	; (8001034 <HAL_RCC_ClockConfig+0x1c4>)
 8000fce:	685b      	ldr	r3, [r3, #4]
 8000fd0:	f423 62e0 	bic.w	r2, r3, #1792	; 0x700
 8000fd4:	687b      	ldr	r3, [r7, #4]
 8000fd6:	68db      	ldr	r3, [r3, #12]
 8000fd8:	4916      	ldr	r1, [pc, #88]	; (8001034 <HAL_RCC_ClockConfig+0x1c4>)
 8000fda:	4313      	orrs	r3, r2
 8000fdc:	604b      	str	r3, [r1, #4]
  }

  /*-------------------------- PCLK2 Configuration ---------------------------*/
  if (((RCC_ClkInitStruct->ClockType) & RCC_CLOCKTYPE_PCLK2) == RCC_CLOCKTYPE_PCLK2)
 8000fde:	687b      	ldr	r3, [r7, #4]
 8000fe0:	681b      	ldr	r3, [r3, #0]
 8000fe2:	f003 0308 	and.w	r3, r3, #8
 8000fe6:	2b00      	cmp	r3, #0
 8000fe8:	d009      	beq.n	8000ffe <HAL_RCC_ClockConfig+0x18e>
  {
    assert_param(IS_RCC_PCLK(RCC_ClkInitStruct->APB2CLKDivider));
    MODIFY_REG(RCC->CFGR, RCC_CFGR_PPRE2, ((RCC_ClkInitStruct->APB2CLKDivider) << 3));
 8000fea:	4b12      	ldr	r3, [pc, #72]	; (8001034 <HAL_RCC_ClockConfig+0x1c4>)
 8000fec:	685b      	ldr	r3, [r3, #4]
 8000fee:	f423 5260 	bic.w	r2, r3, #14336	; 0x3800
 8000ff2:	687b      	ldr	r3, [r7, #4]
 8000ff4:	691b      	ldr	r3, [r3, #16]
 8000ff6:	00db      	lsls	r3, r3, #3
 8000ff8:	490e      	ldr	r1, [pc, #56]	; (8001034 <HAL_RCC_ClockConfig+0x1c4>)
 8000ffa:	4313      	orrs	r3, r2
 8000ffc:	604b      	str	r3, [r1, #4]
  }

  /* Update the SystemCoreClock global variable */
  SystemCoreClock = HAL_RCC_GetSysClockFreq() >> AHBPrescTable[(RCC->CFGR & RCC_CFGR_HPRE) >> RCC_CFGR_HPRE_Pos];
 8000ffe:	f000 f821 	bl	8001044 <HAL_RCC_GetSysClockFreq>
 8001002:	4602      	mov	r2, r0
 8001004:	4b0b      	ldr	r3, [pc, #44]	; (8001034 <HAL_RCC_ClockConfig+0x1c4>)
 8001006:	685b      	ldr	r3, [r3, #4]
 8001008:	091b      	lsrs	r3, r3, #4
 800100a:	f003 030f 	and.w	r3, r3, #15
 800100e:	490a      	ldr	r1, [pc, #40]	; (8001038 <HAL_RCC_ClockConfig+0x1c8>)
 8001010:	5ccb      	ldrb	r3, [r1, r3]
 8001012:	fa22 f303 	lsr.w	r3, r2, r3
 8001016:	4a09      	ldr	r2, [pc, #36]	; (800103c <HAL_RCC_ClockConfig+0x1cc>)
 8001018:	6013      	str	r3, [r2, #0]

  /* Configure the source of time base considering new system clocks settings*/
  HAL_InitTick(uwTickPrio);
 800101a:	4b09      	ldr	r3, [pc, #36]	; (8001040 <HAL_RCC_ClockConfig+0x1d0>)
 800101c:	681b      	ldr	r3, [r3, #0]
 800101e:	4618      	mov	r0, r3
 8001020:	f7ff f9bc 	bl	800039c <HAL_InitTick>

  return HAL_OK;
 8001024:	2300      	movs	r3, #0
}
 8001026:	4618      	mov	r0, r3
 8001028:	3710      	adds	r7, #16
 800102a:	46bd      	mov	sp, r7
 800102c:	bd80      	pop	{r7, pc}
 800102e:	bf00      	nop
 8001030:	40022000 	.word	0x40022000
 8001034:	40021000 	.word	0x40021000
 8001038:	080011bc 	.word	0x080011bc
 800103c:	20000000 	.word	0x20000000
 8001040:	20000004 	.word	0x20000004

08001044 <HAL_RCC_GetSysClockFreq>:
  *         right SYSCLK value. Otherwise, any configuration based on this function will be incorrect.
  *
  * @retval SYSCLK frequency
  */
uint32_t HAL_RCC_GetSysClockFreq(void)
{
 8001044:	b490      	push	{r4, r7}
 8001046:	b08a      	sub	sp, #40	; 0x28
 8001048:	af00      	add	r7, sp, #0
#if defined(RCC_CFGR2_PREDIV1SRC)
  const uint8_t aPLLMULFactorTable[14] = {0, 0, 4, 5, 6, 7, 8, 9, 0, 0, 0, 0, 0, 13};
  const uint8_t aPredivFactorTable[16] = {1, 2, 3, 4, 5, 6, 7, 8, 9, 10, 11, 12, 13, 14, 15, 16};
#else
  const uint8_t aPLLMULFactorTable[16] = {2, 3, 4, 5, 6, 7, 8, 9, 10, 11, 12, 13, 14, 15, 16, 16};
 800104a:	4b29      	ldr	r3, [pc, #164]	; (80010f0 <HAL_RCC_GetSysClockFreq+0xac>)
 800104c:	1d3c      	adds	r4, r7, #4
 800104e:	cb0f      	ldmia	r3, {r0, r1, r2, r3}
 8001050:	e884 000f 	stmia.w	r4, {r0, r1, r2, r3}
#if defined(RCC_CFGR2_PREDIV1)
  const uint8_t aPredivFactorTable[16] = {1, 2, 3, 4, 5, 6, 7, 8, 9, 10, 11, 12, 13, 14, 15, 16};
#else
  const uint8_t aPredivFactorTable[2] = {1, 2};
 8001054:	f240 2301 	movw	r3, #513	; 0x201
 8001058:	803b      	strh	r3, [r7, #0]
#endif /*RCC_CFGR2_PREDIV1*/

#endif
  uint32_t tmpreg = 0U, prediv = 0U, pllclk = 0U, pllmul = 0U;
 800105a:	2300      	movs	r3, #0
 800105c:	61fb      	str	r3, [r7, #28]
 800105e:	2300      	movs	r3, #0
 8001060:	61bb      	str	r3, [r7, #24]
 8001062:	2300      	movs	r3, #0
 8001064:	627b      	str	r3, [r7, #36]	; 0x24
 8001066:	2300      	movs	r3, #0
 8001068:	617b      	str	r3, [r7, #20]
  uint32_t sysclockfreq = 0U;
 800106a:	2300      	movs	r3, #0
 800106c:	623b      	str	r3, [r7, #32]
#if defined(RCC_CFGR2_PREDIV1SRC)
  uint32_t prediv2 = 0U, pll2mul = 0U;
#endif /*RCC_CFGR2_PREDIV1SRC*/

  tmpreg = RCC->CFGR;
 800106e:	4b21      	ldr	r3, [pc, #132]	; (80010f4 <HAL_RCC_GetSysClockFreq+0xb0>)
 8001070:	685b      	ldr	r3, [r3, #4]
 8001072:	61fb      	str	r3, [r7, #28]

  /* Get SYSCLK source -------------------------------------------------------*/
  switch (tmpreg & RCC_CFGR_SWS)
 8001074:	69fb      	ldr	r3, [r7, #28]
 8001076:	f003 030c 	and.w	r3, r3, #12
 800107a:	2b04      	cmp	r3, #4
 800107c:	d002      	beq.n	8001084 <HAL_RCC_GetSysClockFreq+0x40>
 800107e:	2b08      	cmp	r3, #8
 8001080:	d003      	beq.n	800108a <HAL_RCC_GetSysClockFreq+0x46>
 8001082:	e02b      	b.n	80010dc <HAL_RCC_GetSysClockFreq+0x98>
  {
    case RCC_SYSCLKSOURCE_STATUS_HSE:  /* HSE used as system clock */
    {
      sysclockfreq = HSE_VALUE;
 8001084:	4b1c      	ldr	r3, [pc, #112]	; (80010f8 <HAL_RCC_GetSysClockFreq+0xb4>)
 8001086:	623b      	str	r3, [r7, #32]
      break;
 8001088:	e02b      	b.n	80010e2 <HAL_RCC_GetSysClockFreq+0x9e>
    }
    case RCC_SYSCLKSOURCE_STATUS_PLLCLK:  /* PLL used as system clock */
    {
      pllmul = aPLLMULFactorTable[(uint32_t)(tmpreg & RCC_CFGR_PLLMULL) >> RCC_CFGR_PLLMULL_Pos];
 800108a:	69fb      	ldr	r3, [r7, #28]
 800108c:	0c9b      	lsrs	r3, r3, #18
 800108e:	f003 030f 	and.w	r3, r3, #15
 8001092:	3328      	adds	r3, #40	; 0x28
 8001094:	443b      	add	r3, r7
 8001096:	f813 3c24 	ldrb.w	r3, [r3, #-36]
 800109a:	617b      	str	r3, [r7, #20]
      if ((tmpreg & RCC_CFGR_PLLSRC) != RCC_PLLSOURCE_HSI_DIV2)
 800109c:	69fb      	ldr	r3, [r7, #28]
 800109e:	f403 3380 	and.w	r3, r3, #65536	; 0x10000
 80010a2:	2b00      	cmp	r3, #0
 80010a4:	d012      	beq.n	80010cc <HAL_RCC_GetSysClockFreq+0x88>
      {
#if defined(RCC_CFGR2_PREDIV1)
        prediv = aPredivFactorTable[(uint32_t)(RCC->CFGR2 & RCC_CFGR2_PREDIV1) >> RCC_CFGR2_PREDIV1_Pos];
#else
        prediv = aPredivFactorTable[(uint32_t)(RCC->CFGR & RCC_CFGR_PLLXTPRE) >> RCC_CFGR_PLLXTPRE_Pos];
 80010a6:	4b13      	ldr	r3, [pc, #76]	; (80010f4 <HAL_RCC_GetSysClockFreq+0xb0>)
 80010a8:	685b      	ldr	r3, [r3, #4]
 80010aa:	0c5b      	lsrs	r3, r3, #17
 80010ac:	f003 0301 	and.w	r3, r3, #1
 80010b0:	3328      	adds	r3, #40	; 0x28
 80010b2:	443b      	add	r3, r7
 80010b4:	f813 3c28 	ldrb.w	r3, [r3, #-40]
 80010b8:	61bb      	str	r3, [r7, #24]
        {
          pllclk = pllclk / 2;
        }
#else
        /* HSE used as PLL clock source : PLLCLK = HSE/PREDIV1 * PLLMUL */
        pllclk = (uint32_t)((HSE_VALUE  * pllmul) / prediv);
 80010ba:	697b      	ldr	r3, [r7, #20]
 80010bc:	4a0e      	ldr	r2, [pc, #56]	; (80010f8 <HAL_RCC_GetSysClockFreq+0xb4>)
 80010be:	fb03 f202 	mul.w	r2, r3, r2
 80010c2:	69bb      	ldr	r3, [r7, #24]
 80010c4:	fbb2 f3f3 	udiv	r3, r2, r3
 80010c8:	627b      	str	r3, [r7, #36]	; 0x24
 80010ca:	e004      	b.n	80010d6 <HAL_RCC_GetSysClockFreq+0x92>
#endif /*RCC_CFGR2_PREDIV1SRC*/
      }
      else
      {
        /* HSI used as PLL clock source : PLLCLK = HSI/2 * PLLMUL */
        pllclk = (uint32_t)((HSI_VALUE >> 1) * pllmul);
 80010cc:	697b      	ldr	r3, [r7, #20]
 80010ce:	4a0b      	ldr	r2, [pc, #44]	; (80010fc <HAL_RCC_GetSysClockFreq+0xb8>)
 80010d0:	fb02 f303 	mul.w	r3, r2, r3
 80010d4:	627b      	str	r3, [r7, #36]	; 0x24
      }
      sysclockfreq = pllclk;
 80010d6:	6a7b      	ldr	r3, [r7, #36]	; 0x24
 80010d8:	623b      	str	r3, [r7, #32]
      break;
 80010da:	e002      	b.n	80010e2 <HAL_RCC_GetSysClockFreq+0x9e>
    }
    case RCC_SYSCLKSOURCE_STATUS_HSI:  /* HSI used as system clock source */
    default: /* HSI used as system clock */
    {
      sysclockfreq = HSI_VALUE;
 80010dc:	4b06      	ldr	r3, [pc, #24]	; (80010f8 <HAL_RCC_GetSysClockFreq+0xb4>)
 80010de:	623b      	str	r3, [r7, #32]
      break;
 80010e0:	bf00      	nop
    }
  }
  return sysclockfreq;
 80010e2:	6a3b      	ldr	r3, [r7, #32]
}
 80010e4:	4618      	mov	r0, r3
 80010e6:	3728      	adds	r7, #40	; 0x28
 80010e8:	46bd      	mov	sp, r7
 80010ea:	bc90      	pop	{r4, r7}
 80010ec:	4770      	bx	lr
 80010ee:	bf00      	nop
 80010f0:	080011ac 	.word	0x080011ac
 80010f4:	40021000 	.word	0x40021000
 80010f8:	007a1200 	.word	0x007a1200
 80010fc:	003d0900 	.word	0x003d0900

08001100 <RCC_Delay>:
  * @brief  This function provides delay (in milliseconds) based on CPU cycles method.
  * @param  mdelay: specifies the delay time length, in milliseconds.
  * @retval None
  */
static void RCC_Delay(uint32_t mdelay)
{
 8001100:	b480      	push	{r7}
 8001102:	b085      	sub	sp, #20
 8001104:	af00      	add	r7, sp, #0
 8001106:	6078      	str	r0, [r7, #4]
  __IO uint32_t Delay = mdelay * (SystemCoreClock / 8U / 1000U);
 8001108:	4b0a      	ldr	r3, [pc, #40]	; (8001134 <RCC_Delay+0x34>)
 800110a:	681b      	ldr	r3, [r3, #0]
 800110c:	4a0a      	ldr	r2, [pc, #40]	; (8001138 <RCC_Delay+0x38>)
 800110e:	fba2 2303 	umull	r2, r3, r2, r3
 8001112:	0a5b      	lsrs	r3, r3, #9
 8001114:	687a      	ldr	r2, [r7, #4]
 8001116:	fb02 f303 	mul.w	r3, r2, r3
 800111a:	60fb      	str	r3, [r7, #12]
  do
  {
    __NOP();
 800111c:	bf00      	nop
  }
  while (Delay --);
 800111e:	68fb      	ldr	r3, [r7, #12]
 8001120:	1e5a      	subs	r2, r3, #1
 8001122:	60fa      	str	r2, [r7, #12]
 8001124:	2b00      	cmp	r3, #0
 8001126:	d1f9      	bne.n	800111c <RCC_Delay+0x1c>
}
 8001128:	bf00      	nop
 800112a:	bf00      	nop
 800112c:	3714      	adds	r7, #20
 800112e:	46bd      	mov	sp, r7
 8001130:	bc80      	pop	{r7}
 8001132:	4770      	bx	lr
 8001134:	20000000 	.word	0x20000000
 8001138:	10624dd3 	.word	0x10624dd3

0800113c <__libc_init_array>:
 800113c:	b570      	push	{r4, r5, r6, lr}
 800113e:	2600      	movs	r6, #0
 8001140:	4d0c      	ldr	r5, [pc, #48]	; (8001174 <__libc_init_array+0x38>)
 8001142:	4c0d      	ldr	r4, [pc, #52]	; (8001178 <__libc_init_array+0x3c>)
 8001144:	1b64      	subs	r4, r4, r5
 8001146:	10a4      	asrs	r4, r4, #2
 8001148:	42a6      	cmp	r6, r4
 800114a:	d109      	bne.n	8001160 <__libc_init_array+0x24>
 800114c:	f000 f822 	bl	8001194 <_init>
 8001150:	2600      	movs	r6, #0
 8001152:	4d0a      	ldr	r5, [pc, #40]	; (800117c <__libc_init_array+0x40>)
 8001154:	4c0a      	ldr	r4, [pc, #40]	; (8001180 <__libc_init_array+0x44>)
 8001156:	1b64      	subs	r4, r4, r5
 8001158:	10a4      	asrs	r4, r4, #2
 800115a:	42a6      	cmp	r6, r4
 800115c:	d105      	bne.n	800116a <__libc_init_array+0x2e>
 800115e:	bd70      	pop	{r4, r5, r6, pc}
 8001160:	f855 3b04 	ldr.w	r3, [r5], #4
 8001164:	4798      	blx	r3
 8001166:	3601      	adds	r6, #1
 8001168:	e7ee      	b.n	8001148 <__libc_init_array+0xc>
 800116a:	f855 3b04 	ldr.w	r3, [r5], #4
 800116e:	4798      	blx	r3
 8001170:	3601      	adds	r6, #1
 8001172:	e7f2      	b.n	800115a <__libc_init_array+0x1e>
 8001174:	080011cc 	.word	0x080011cc
 8001178:	080011cc 	.word	0x080011cc
 800117c:	080011cc 	.word	0x080011cc
 8001180:	080011d0 	.word	0x080011d0

08001184 <memset>:
 8001184:	4603      	mov	r3, r0
 8001186:	4402      	add	r2, r0
 8001188:	4293      	cmp	r3, r2
 800118a:	d100      	bne.n	800118e <memset+0xa>
 800118c:	4770      	bx	lr
 800118e:	f803 1b01 	strb.w	r1, [r3], #1
 8001192:	e7f9      	b.n	8001188 <memset+0x4>

08001194 <_init>:
 8001194:	b5f8      	push	{r3, r4, r5, r6, r7, lr}
 8001196:	bf00      	nop
 8001198:	bcf8      	pop	{r3, r4, r5, r6, r7}
 800119a:	bc08      	pop	{r3}
 800119c:	469e      	mov	lr, r3
 800119e:	4770      	bx	lr

080011a0 <_fini>:
 80011a0:	b5f8      	push	{r3, r4, r5, r6, r7, lr}
 80011a2:	bf00      	nop
 80011a4:	bcf8      	pop	{r3, r4, r5, r6, r7}
 80011a6:	bc08      	pop	{r3}
 80011a8:	469e      	mov	lr, r3
 80011aa:	4770      	bx	lr
